{
  "transactions": [
    {
      "hash": "0x237f7c8ded6a9b761673eaf0546801e3c656c64bcfb9c38d6f9b2bdda7f0a85c",
      "transactionType": "CREATE",
      "contractName": "FootyDAOAdapter",
      "contractAddress": "0x8a035f319a4A30FBEc1d2fBaaC55454F25062F15",
      "function": null,
      "arguments": null,
      "transaction": {
        "type": "0x00",
        "from": "0xde3089d40f3491de794fbb1eca109fac36f889d0",
        "gas": "0xed53d",
        "value": "0x0",
        "data": "0x608060405234801561001057600080fd5b50610c91806100206000396000f3fe6080604052600436106100915760003560e01c8063aff3ae2911610059578063aff3ae29146101f6578063b430bb481461021d578063d6a0d8f314610232578063df43232e14610245578063e16e632c1461026557600080fd5b80630a9e6a70146100965780635d42ac40146100b85780636ef0214c146101045780637725135b14610143578063971cb8fb1461017b575b600080fd5b3480156100a257600080fd5b506100b66100b13660046108cb565b610285565b005b3480156100c457600080fd5b506100b66100d3366004610966565b600080546001600160a01b03909216600160401b0268010000000000000000600160e01b0319909216919091179055565b34801561011057600080fd5b506000546101259067ffffffffffffffff1681565b60405167ffffffffffffffff90911681526020015b60405180910390f35b34801561014f57600080fd5b50600254610163906001600160a01b031681565b6040516001600160a01b03909116815260200161013a565b34801561018757600080fd5b506100b6610196366004610988565b600080546001600160a01b03948516600160401b026001600160e01b031990911667ffffffffffffffff9096169590951794909417909355600180549183166001600160a01b031992831617905560028054939092169216919091179055565b34801561020257600080fd5b5060005461016390600160401b90046001600160a01b031681565b34801561022957600080fd5b506100b66102f2565b6100b66102403660046109eb565b6103da565b34801561025157600080fd5b506100b6610260366004610a04565b610447565b34801561027157600080fd5b50600154610163906001600160a01b031681565b604080518082019091526000908060048152602001858585336040516020016102b19493929190610a47565b60408051601f198184030181529181529152516102d19190602001610af9565b60405160208183030381529060405290506102eb816104d7565b5050505050565b6002546040516370a0823160e01b81523060048201526001600160a01b039091169063a9059cbb90339083906370a0823190602401602060405180830381865afa158015610344573d6000803e3d6000fd5b505050506040513d601f19601f820116820180604052508101906103689190610b46565b6040516001600160e01b031960e085901b1681526001600160a01b03909216600483015260248201526044016020604051808303816000875af11580156103b3573d6000803e3d6000fd5b505050506040513d601f19601f820116820180604052508101906103d79190610b5f565b50565b6040805180820182526001815281516020808201859052339382019390935234606082015260009282019060800160408051601f198184030181529181529152516104289190602001610af9565b6040516020818303038152906040529050610442816104d7565b505050565b60408051808201825260008082528251336020808301919091529381018a9052606081018990526080810188905260a0810187905260c0810186905260e0810185905290928201906101000160408051601f198184030181529181529152516104b39190602001610af9565b60405160208183030381529060405290506104cd816104d7565b5050505050505050565b6040805160a0810190915260008054600160401b90046001600160a01b031660c08301529081908060e0810160408051808303601f19018152918152908252602080830187905281516000808252918101835292909101919061055c565b60408051808201909152600080825260208201528152602001906001900390816105355790505b5081526002546001600160a01b03166020808301919091526040805180820182526207a12080825260009184019182528251602481019190915290511515604480830191909152825180830390910181526064909101825291820180516001600160e01b03166397a657c960e01b17905290910152600154600080546040516320487ded60e01b815293945090926001600160a01b03909216916320487ded916106179167ffffffffffffffff909116908690600401610b81565b602060405180830381865afa158015610634573d6000803e3d6000fd5b505050506040513d601f19601f820116820180604052508101906106589190610b46565b6002546040516370a0823160e01b81523060048201529192506001600160a01b0316906370a0823190602401602060405180830381865afa1580156106a1573d6000803e3d6000fd5b505050506040513d601f19601f820116820180604052508101906106c59190610b46565b811115610760576002546040516370a0823160e01b81523060048201526001600160a01b03909116906370a0823190602401602060405180830381865afa158015610714573d6000803e3d6000fd5b505050506040513d601f19601f820116820180604052508101906107389190610b46565b604051634787a10360e11b815260048101919091526024810182905260440160405180910390fd5b60025460015460405163095ea7b360e01b81526001600160a01b0391821660048201526024810184905291169063095ea7b3906044016020604051808303816000875af11580156107b5573d6000803e3d6000fd5b505050506040513d601f19601f820116820180604052508101906107d99190610b5f565b506001546000546040516396f4e9f960e01b81526001600160a01b03909216916396f4e9f99161081a9167ffffffffffffffff909116908690600401610b81565b6020604051808303816000875af1158015610839573d6000803e3d6000fd5b505050506040513d601f19601f8201168201806040525081019061085d9190610b46565b600054600254604080516001600160a01b03600160401b8504811682529092166020830152810184905291945067ffffffffffffffff169084907f9fb548811cfe022ba6400d8533a80d63fbc228e596f93603959dc47b1886af549060600160405180910390a35050919050565b6000806000604084860312156108e057600080fd5b83359250602084013567ffffffffffffffff808211156108ff57600080fd5b818601915086601f83011261091357600080fd5b81358181111561092257600080fd5b8760208260051b850101111561093757600080fd5b6020830194508093505050509250925092565b80356001600160a01b038116811461096157600080fd5b919050565b60006020828403121561097857600080fd5b6109818261094a565b9392505050565b6000806000806080858703121561099e57600080fd5b843567ffffffffffffffff811681146109b657600080fd5b93506109c46020860161094a565b92506109d26040860161094a565b91506109e06060860161094a565b905092959194509250565b6000602082840312156109fd57600080fd5b5035919050565b60008060008060008060c08789031215610a1d57600080fd5b505084359660208601359650604086013595606081013595506080810135945060a0013592509050565b84815260606020808301829052908201849052600090859060808401835b87811015610a91576001600160a01b03610a7e8561094a565b1682529282019290820190600101610a65565b506001600160a01b039590951660409490940193909352509195945050505050565b6000815180845260005b81811015610ad957602081850181015186830182015201610abd565b506000602082860101526020601f19601f83011685010191505092915050565b602081526000825160088110610b1f57634e487b7160e01b600052602160045260246000fd5b806020840152506020830151604080840152610b3e6060840182610ab3565b949350505050565b600060208284031215610b5857600080fd5b5051919050565b600060208284031215610b7157600080fd5b8151801515811461098157600080fd5b6000604067ffffffffffffffff8516835260208181850152845160a083860152610bae60e0860182610ab3565b905081860151603f1980878403016060880152610bcb8383610ab3565b88860151888203830160808a01528051808352908601945060009350908501905b80841015610c1e57845180516001600160a01b0316835286015186830152938501936001939093019290860190610bec565b5060608901516001600160a01b031660a08901526080890151888203830160c08a01529550610c4d8187610ab3565b9a995050505050505050505056fea2646970667358221220f3621336ac65b099105c6428aa67b95a2829fa2545309be1ba71c1c16659a27764736f6c63430008150033",
        "nonce": "0x76"
      },
      "additionalContracts": [],
      "isFixedGasLimit": false
    },
    {
      "hash": "0x9a3329d0939021be9de82e63c4ec0b38dfe001bbc5cf49b16af14efc1ce269b6",
      "transactionType": "CALL",
      "contractName": "FootyDAOAdapter",
      "contractAddress": "0x8a035f319a4A30FBEc1d2fBaaC55454F25062F15",
      "function": "initialize(uint64,address,address,address)",
      "arguments": [
        "2664363617261496610",
        "0x52E058E5CD5D9a25117bCe2c467c521667b345b1",
        "0xA8C0c11bf64AF62CDCA6f93D3769B88BdD7cb93D",
        "0xD886E2286Fd1073df82462ea1822119600Af80b6"
      ],
      "transaction": {
        "type": "0x00",
        "from": "0xde3089d40f3491de794fbb1eca109fac36f889d0",
        "to": "0x8a035f319a4a30fbec1d2fbaac55454f25062f15",
        "gas": "0x1e2f5",
        "value": "0x0",
        "data": "0x971cb8fb00000000000000000000000000000000000000000000000024f9b897ef58a92200000000000000000000000052e058e5cd5d9a25117bce2c467c521667b345b1000000000000000000000000a8c0c11bf64af62cdca6f93d3769b88bdd7cb93d000000000000000000000000d886e2286fd1073df82462ea1822119600af80b6",
        "nonce": "0x77"
      },
      "additionalContracts": [],
      "isFixedGasLimit": false
    },
    {
      "hash": "0xd09595aeecb18f8a9f37b273efa085425fd967aba84112aec1d67546d131bcc9",
      "transactionType": "CALL",
      "contractName": null,
      "contractAddress": "0xD886E2286Fd1073df82462ea1822119600Af80b6",
      "function": null,
      "arguments": null,
      "transaction": {
        "type": "0x00",
        "from": "0xde3089d40f3491de794fbb1eca109fac36f889d0",
        "to": "0xd886e2286fd1073df82462ea1822119600af80b6",
        "gas": "0x1261d",
        "value": "0x0",
        "data": "0xa9059cbb0000000000000000000000008a035f319a4a30fbec1d2fbaac55454f25062f150000000000000000000000000000000000000000000000001bc16d674ec80000",
        "nonce": "0x78"
      },
      "additionalContracts": [],
      "isFixedGasLimit": false
    },
    {
      "hash": "0x0b0c1d36fc9ba3a05b096324973e02cd20031d9679758567c1f9a044d42665a8",
      "transactionType": "CALL",
      "contractName": "FootyDAOAdapter",
      "contractAddress": "0x8a035f319a4A30FBEc1d2fBaaC55454F25062F15",
      "function": "createSportEvent(uint256,uint256,uint256,uint256,uint256,uint256)",
      "arguments": [
        "100000000000000000",
        "100000000000000100",
        "10000",
        "100000000000",
        "100000000000",
        "10"
      ],
      "transaction": {
        "type": "0x00",
        "from": "0xde3089d40f3491de794fbb1eca109fac36f889d0",
        "to": "0x8a035f319a4a30fbec1d2fbaac55454f25062f15",
        "gas": "0x38aa6",
        "value": "0x0",
        "data": "0xdf43232e000000000000000000000000000000000000000000000000016345785d8a0000000000000000000000000000000000000000000000000000016345785d8a00640000000000000000000000000000000000000000000000000000000000002710000000000000000000000000000000000000000000000000000000174876e800000000000000000000000000000000000000000000000000000000174876e800000000000000000000000000000000000000000000000000000000000000000a",
        "nonce": "0x79"
      },
      "additionalContracts": [],
      "isFixedGasLimit": false
    }
  ],
  "receipts": [
    {
      "transactionHash": "0x237f7c8ded6a9b761673eaf0546801e3c656c64bcfb9c38d6f9b2bdda7f0a85c",
      "transactionIndex": "0x1",
      "blockHash": "0x7fb26e42c1307b52f16d21da275adaa8e6ec54a513e65e00ce504975d785e61e",
      "blockNumber": "0xbfda6c",
      "from": "0xDe3089d40F3491De794fBb1ECA109fAc36F889d0",
      "to": null,
      "cumulativeGasUsed": "0xc23c1",
      "gasUsed": "0xb69c0",
      "contractAddress": "0x8a035f319a4A30FBEc1d2fBaaC55454F25062F15",
      "logs": [],
      "status": "0x1",
      "logsBloom": "0x00000000000000000000000000000000000000000000000000000000000000000000000000000000000000000000000000000000000000000000000000000000000000000000000000000000000000000000000000000000000000000000000000000000000000000000000000000000000000000000000000000000000000000000000000000000000000000000000000000000000000000000000000000000000000000000000000000000000000000000000000000000000000000000000000000000000000000000000000000000000000000000000000000000000000000000000000000000000000000000000000000000000000000000000000000000",
      "type": "0x0",
      "effectiveGasPrice": "0xf433e"
    },
    {
      "transactionHash": "0x9a3329d0939021be9de82e63c4ec0b38dfe001bbc5cf49b16af14efc1ce269b6",
      "transactionIndex": "0x2",
      "blockHash": "0x7fb26e42c1307b52f16d21da275adaa8e6ec54a513e65e00ce504975d785e61e",
      "blockNumber": "0xbfda6c",
      "from": "0xDe3089d40F3491De794fBb1ECA109fAc36F889d0",
      "to": "0x8a035f319a4A30FBEc1d2fBaaC55454F25062F15",
      "cumulativeGasUsed": "0xd8169",
      "gasUsed": "0x15da8",
      "contractAddress": null,
      "logs": [],
      "status": "0x1",
      "logsBloom": "0x00000000000000000000000000000000000000000000000000000000000000000000000000000000000000000000000000000000000000000000000000000000000000000000000000000000000000000000000000000000000000000000000000000000000000000000000000000000000000000000000000000000000000000000000000000000000000000000000000000000000000000000000000000000000000000000000000000000000000000000000000000000000000000000000000000000000000000000000000000000000000000000000000000000000000000000000000000000000000000000000000000000000000000000000000000000",
      "type": "0x0",
      "effectiveGasPrice": "0xf433e"
    },
    {
      "transactionHash": "0xd09595aeecb18f8a9f37b273efa085425fd967aba84112aec1d67546d131bcc9",
      "transactionIndex": "0x3",
      "blockHash": "0x7fb26e42c1307b52f16d21da275adaa8e6ec54a513e65e00ce504975d785e61e",
      "blockNumber": "0xbfda6c",
      "from": "0xDe3089d40F3491De794fBb1ECA109fAc36F889d0",
      "to": "0xD886E2286Fd1073df82462ea1822119600Af80b6",
      "cumulativeGasUsed": "0xe4a84",
      "gasUsed": "0xc91b",
      "contractAddress": null,
      "logs": [
        {
          "address": "0xD886E2286Fd1073df82462ea1822119600Af80b6",
          "topics": [
            "0xddf252ad1be2c89b69c2b068fc378daa952ba7f163c4a11628f55a4df523b3ef",
            "0x000000000000000000000000de3089d40f3491de794fbb1eca109fac36f889d0",
            "0x0000000000000000000000008a035f319a4a30fbec1d2fbaac55454f25062f15"
          ],
          "data": "0x0000000000000000000000000000000000000000000000001bc16d674ec80000",
          "blockHash": "0x7fb26e42c1307b52f16d21da275adaa8e6ec54a513e65e00ce504975d785e61e",
          "blockNumber": "0xbfda6c",
          "transactionHash": "0xd09595aeecb18f8a9f37b273efa085425fd967aba84112aec1d67546d131bcc9",
          "transactionIndex": "0x3",
          "logIndex": "0x0",
          "removed": false
        }
      ],
      "status": "0x1",
      "logsBloom": "0x00000000000000000000000000000000000000000000000010000000000000000000000000000000000000000200000000000000100000000000000000000040000000000000000000000008000000000000000000000000040000000000000000000000000000000000000000000000000080000000000000000010000000000000000000000000000000000000000000000000001000000000000000000000000000000000000000000000000000000000000000000000000000000000000000000002000000000000000000000000000000000000000000000000000000000000000000000000000000000000000000000000000000400000000000000000",
      "type": "0x0",
      "effectiveGasPrice": "0xf433e"
    },
    {
      "transactionHash": "0x0b0c1d36fc9ba3a05b096324973e02cd20031d9679758567c1f9a044d42665a8",
      "transactionIndex": "0x4",
      "blockHash": "0x7fb26e42c1307b52f16d21da275adaa8e6ec54a513e65e00ce504975d785e61e",
      "blockNumber": "0xbfda6c",
      "from": "0xDe3089d40F3491De794fBb1ECA109fAc36F889d0",
      "to": "0x8a035f319a4A30FBEc1d2fBaaC55454F25062F15",
      "cumulativeGasUsed": "0x10daea",
      "gasUsed": "0x29066",
      "contractAddress": null,
      "logs": [
        {
          "address": "0xD886E2286Fd1073df82462ea1822119600Af80b6",
          "topics": [
            "0x8c5be1e5ebec7d5bd14f71427d1e84f3dd0314c0f7b2291e5b200ac8c7c3b925",
            "0x0000000000000000000000008a035f319a4a30fbec1d2fbaac55454f25062f15",
            "0x000000000000000000000000a8c0c11bf64af62cdca6f93d3769b88bdd7cb93d"
          ],
          "data": "0x00000000000000000000000000000000000000000000000001ec03e6eee201c4",
          "blockHash": "0x7fb26e42c1307b52f16d21da275adaa8e6ec54a513e65e00ce504975d785e61e",
          "blockNumber": "0xbfda6c",
          "transactionHash": "0x0b0c1d36fc9ba3a05b096324973e02cd20031d9679758567c1f9a044d42665a8",
          "transactionIndex": "0x4",
          "logIndex": "0x1",
          "removed": false
        },
        {
          "address": "0xD886E2286Fd1073df82462ea1822119600Af80b6",
          "topics": [
            "0x8c5be1e5ebec7d5bd14f71427d1e84f3dd0314c0f7b2291e5b200ac8c7c3b925",
            "0x0000000000000000000000008a035f319a4a30fbec1d2fbaac55454f25062f15",
            "0x000000000000000000000000a8c0c11bf64af62cdca6f93d3769b88bdd7cb93d"
          ],
          "data": "0x0000000000000000000000000000000000000000000000000000000000000000",
          "blockHash": "0x7fb26e42c1307b52f16d21da275adaa8e6ec54a513e65e00ce504975d785e61e",
          "blockNumber": "0xbfda6c",
          "transactionHash": "0x0b0c1d36fc9ba3a05b096324973e02cd20031d9679758567c1f9a044d42665a8",
          "transactionIndex": "0x4",
          "logIndex": "0x2",
          "removed": false
        },
        {
          "address": "0xD886E2286Fd1073df82462ea1822119600Af80b6",
          "topics": [
            "0xddf252ad1be2c89b69c2b068fc378daa952ba7f163c4a11628f55a4df523b3ef",
            "0x0000000000000000000000008a035f319a4a30fbec1d2fbaac55454f25062f15",
            "0x0000000000000000000000000549c3fc7faece40f19f3096f7401f382db1568d"
          ],
          "data": "0x00000000000000000000000000000000000000000000000001ec03e6eee201c4",
          "blockHash": "0x7fb26e42c1307b52f16d21da275adaa8e6ec54a513e65e00ce504975d785e61e",
          "blockNumber": "0xbfda6c",
          "transactionHash": "0x0b0c1d36fc9ba3a05b096324973e02cd20031d9679758567c1f9a044d42665a8",
          "transactionIndex": "0x4",
          "logIndex": "0x3",
          "removed": false
        },
        {
          "address": "0x0549c3FC7FAecE40F19F3096F7401f382dB1568D",
          "topics": [
            "0xaffc45517195d6499808c643bd4a7b0ffeedf95bea5852840d7bfcf63f59e821"
          ],
          "data": "0x0000000000000000000000000000000000000000000000000000000000000020000000000000000000000000000000000000000000000000505d17e36030dae900000000000000000000000000000000000000000000000000000000000005c200000000000000000000000000000000000000000000000001ec03e6eee201c40000000000000000000000008a035f319a4a30fbec1d2fbaac55454f25062f150000000000000000000000000000000000000000000000000000000000000001000000000000000000000000000000000000000000000000000000000007a120000000000000000000000000000000000000000000000000000000000000000000000000000000000000000052e058e5cd5d9a25117bce2c467c521667b345b100000000000000000000000000000000000000000000000000000000000001800000000000000000000000000000000000000000000000000000000000000300000000000000000000000000d886e2286fd1073df82462ea1822119600af80b67314ed842d0d274f87553f598ea72b825c04041ed0cf81f442a20d947e95efff000000000000000000000000000000000000000000000000000000000000016000000000000000000000000000000000000000000000000000000000000000200000000000000000000000000000000000000000000000000000000000000000000000000000000000000000000000000000000000000000000000000000004000000000000000000000000000000000000000000000000000000000000000e0000000000000000000000000de3089d40f3491de794fbb1eca109fac36f889d0000000000000000000000000000000000000000000000000016345785d8a0000000000000000000000000000000000000000000000000000016345785d8a00640000000000000000000000000000000000000000000000000000000000002710000000000000000000000000000000000000000000000000000000174876e800000000000000000000000000000000000000000000000000000000174876e800000000000000000000000000000000000000000000000000000000000000000a0000000000000000000000000000000000000000000000000000000000000000",
          "blockHash": "0x7fb26e42c1307b52f16d21da275adaa8e6ec54a513e65e00ce504975d785e61e",
          "blockNumber": "0xbfda6c",
          "transactionHash": "0x0b0c1d36fc9ba3a05b096324973e02cd20031d9679758567c1f9a044d42665a8",
          "transactionIndex": "0x4",
          "logIndex": "0x4",
          "removed": false
        },
        {
          "address": "0x8a035f319a4A30FBEc1d2fBaaC55454F25062F15",
          "topics": [
            "0x9fb548811cfe022ba6400d8533a80d63fbc228e596f93603959dc47b1886af54",
            "0x7314ed842d0d274f87553f598ea72b825c04041ed0cf81f442a20d947e95efff",
            "0x00000000000000000000000000000000000000000000000024f9b897ef58a922"
          ],
          "data": "0x00000000000000000000000052e058e5cd5d9a25117bce2c467c521667b345b1000000000000000000000000d886e2286fd1073df82462ea1822119600af80b600000000000000000000000000000000000000000000000001ec03e6eee201c4",
          "blockHash": "0x7fb26e42c1307b52f16d21da275adaa8e6ec54a513e65e00ce504975d785e61e",
          "blockNumber": "0xbfda6c",
          "transactionHash": "0x0b0c1d36fc9ba3a05b096324973e02cd20031d9679758567c1f9a044d42665a8",
          "transactionIndex": "0x4",
          "logIndex": "0x5",
          "removed": false
        }
      ],
      "status": "0x1",
      "logsBloom": "0x01000100000000000000000000000000000000000000000010000000008000000000800000000000000000000200000000000000000000000101000000201000000000000000000000000808000000000000000000000400040000200000000000000000000000000000000000020040000080010000000000000010100000000000000000000080000000000000000000000000000000000000010000000000020000000000004000000000000004000080000000000000000000000000000000000002000000000000000000000000000000000000000010200001000000000010000000000000000000000000000000000000000004400800000000000000",
      "type": "0x0",
      "effectiveGasPrice": "0xf433e"
    }
  ],
  "libraries": [],
  "pending": [],
  "returns": {},
  "timestamp": 1700340205,
  "chain": 84531,
  "multi": false,
  "commit": "6c16f78"
}