{
  "transactions": [
    {
      "hash": "0xe46e316ca78c994d1dba8fc922a48e49612f8b28a439826615b6fc884e2b2422",
      "transactionType": "CREATE",
      "contractName": "FootyDAOAdapter",
      "contractAddress": "0xfFd2b4CE3C5CB598be42595b4DA158F565c778a1",
      "function": null,
      "arguments": null,
      "transaction": {
        "type": "0x00",
        "from": "0xde3089d40f3491de794fbb1eca109fac36f889d0",
        "gas": "0xe58ad",
        "value": "0x0",
        "data": "0x608060405234801561001057600080fd5b50610c1f806100206000396000f3fe6080604052600436106100865760003560e01c8063aff3ae2911610059578063aff3ae291461019f578063b430bb48146101c6578063d6a0d8f3146101db578063df43232e146101ee578063e16e632c1461020e57600080fd5b80630a9e6a701461008b5780636ef0214c146100ad5780637725135b146100ec578063971cb8fb14610124575b600080fd5b34801561009757600080fd5b506100ab6100a6366004610874565b61022e565b005b3480156100b957600080fd5b506000546100ce9067ffffffffffffffff1681565b60405167ffffffffffffffff90911681526020015b60405180910390f35b3480156100f857600080fd5b5060025461010c906001600160a01b031681565b6040516001600160a01b0390911681526020016100e3565b34801561013057600080fd5b506100ab61013f36600461090f565b600080546001600160a01b03948516600160401b026001600160e01b031990911667ffffffffffffffff9096169590951794909417909355600180549183166001600160a01b031992831617905560028054939092169216919091179055565b3480156101ab57600080fd5b5060005461010c90600160401b90046001600160a01b031681565b3480156101d257600080fd5b506100ab61029b565b6100ab6101e9366004610972565b610383565b3480156101fa57600080fd5b506100ab61020936600461098b565b6103f0565b34801561021a57600080fd5b5060015461010c906001600160a01b031681565b6040805180820190915260009080600481526020018585853360405160200161025a94939291906109ce565b60408051601f1981840301815291815291525161027a9190602001610a80565b604051602081830303815290604052905061029481610480565b5050505050565b6002546040516370a0823160e01b81523060048201526001600160a01b039091169063a9059cbb90339083906370a0823190602401602060405180830381865afa1580156102ed573d6000803e3d6000fd5b505050506040513d601f19601f820116820180604052508101906103119190610acd565b6040516001600160e01b031960e085901b1681526001600160a01b03909216600483015260248201526044016020604051808303816000875af115801561035c573d6000803e3d6000fd5b505050506040513d601f19601f820116820180604052508101906103809190610ae6565b50565b6040805180820182526001815281516020808201859052339382019390935234606082015260009282019060800160408051601f198184030181529181529152516103d19190602001610a80565b60405160208183030381529060405290506103eb81610480565b505050565b60408051808201825260008082528251336020808301919091529381018a9052606081018990526080810188905260a0810187905260c0810186905260e0810185905290928201906101000160408051601f1981840301815291815291525161045c9190602001610a80565b604051602081830303815290604052905061047681610480565b5050505050505050565b6040805160a0810190915260008054600160401b90046001600160a01b031660c08301529081908060e0810160408051808303601f190181529181529082526020808301879052815160008082529181018352929091019190610505565b60408051808201909152600080825260208201528152602001906001900390816104de5790505b5081526002546001600160a01b03166020808301919091526040805180820182526207a12080825260009184019182528251602481019190915290511515604480830191909152825180830390910181526064909101825291820180516001600160e01b03166397a657c960e01b17905290910152600154600080546040516320487ded60e01b815293945090926001600160a01b03909216916320487ded916105c09167ffffffffffffffff909116908690600401610b0f565b602060405180830381865afa1580156105dd573d6000803e3d6000fd5b505050506040513d601f19601f820116820180604052508101906106019190610acd565b6002546040516370a0823160e01b81523060048201529192506001600160a01b0316906370a0823190602401602060405180830381865afa15801561064a573d6000803e3d6000fd5b505050506040513d601f19601f8201168201806040525081019061066e9190610acd565b811115610709576002546040516370a0823160e01b81523060048201526001600160a01b03909116906370a0823190602401602060405180830381865afa1580156106bd573d6000803e3d6000fd5b505050506040513d601f19601f820116820180604052508101906106e19190610acd565b604051634787a10360e11b815260048101919091526024810182905260440160405180910390fd5b60025460015460405163095ea7b360e01b81526001600160a01b0391821660048201526024810184905291169063095ea7b3906044016020604051808303816000875af115801561075e573d6000803e3d6000fd5b505050506040513d601f19601f820116820180604052508101906107829190610ae6565b506001546000546040516396f4e9f960e01b81526001600160a01b03909216916396f4e9f9916107c39167ffffffffffffffff909116908690600401610b0f565b6020604051808303816000875af11580156107e2573d6000803e3d6000fd5b505050506040513d601f19601f820116820180604052508101906108069190610acd565b600054600254604080516001600160a01b03600160401b8504811682529092166020830152810184905291945067ffffffffffffffff169084907f9fb548811cfe022ba6400d8533a80d63fbc228e596f93603959dc47b1886af549060600160405180910390a35050919050565b60008060006040848603121561088957600080fd5b83359250602084013567ffffffffffffffff808211156108a857600080fd5b818601915086601f8301126108bc57600080fd5b8135818111156108cb57600080fd5b8760208260051b85010111156108e057600080fd5b6020830194508093505050509250925092565b80356001600160a01b038116811461090a57600080fd5b919050565b6000806000806080858703121561092557600080fd5b843567ffffffffffffffff8116811461093d57600080fd5b935061094b602086016108f3565b9250610959604086016108f3565b9150610967606086016108f3565b905092959194509250565b60006020828403121561098457600080fd5b5035919050565b60008060008060008060c087890312156109a457600080fd5b505084359660208601359650604086013595606081013595506080810135945060a0013592509050565b84815260606020808301829052908201849052600090859060808401835b87811015610a18576001600160a01b03610a05856108f3565b16825292820192908201906001016109ec565b506001600160a01b039590951660409490940193909352509195945050505050565b6000815180845260005b81811015610a6057602081850181015186830182015201610a44565b506000602082860101526020601f19601f83011685010191505092915050565b602081526000825160088110610aa657634e487b7160e01b600052602160045260246000fd5b806020840152506020830151604080840152610ac56060840182610a3a565b949350505050565b600060208284031215610adf57600080fd5b5051919050565b600060208284031215610af857600080fd5b81518015158114610b0857600080fd5b9392505050565b6000604067ffffffffffffffff8516835260208181850152845160a083860152610b3c60e0860182610a3a565b905081860151603f1980878403016060880152610b598383610a3a565b88860151888203830160808a01528051808352908601945060009350908501905b80841015610bac57845180516001600160a01b0316835286015186830152938501936001939093019290860190610b7a565b5060608901516001600160a01b031660a08901526080890151888203830160c08a01529550610bdb8187610a3a565b9a995050505050505050505056fea2646970667358221220feb01a7e03d2be4487e32f34aa2e0f96e561c4916fb9ba28c0594da6cf7a378f64736f6c63430008150033",
        "nonce": "0x72"
      },
      "additionalContracts": [],
      "isFixedGasLimit": false
    },
    {
      "hash": "0x4ec92856ddf72fe528eeaaff5a04b558b7b66d43306152c7f43c4267dbf0fb2d",
      "transactionType": "CALL",
      "contractName": "FootyDAOAdapter",
      "contractAddress": "0xfFd2b4CE3C5CB598be42595b4DA158F565c778a1",
      "function": "initialize(uint64,address,address,address)",
      "arguments": [
        "2664363617261496610",
        "0x6eD3783FdA9ab2Ca991AB6a99e574784874A7678",
        "0xA8C0c11bf64AF62CDCA6f93D3769B88BdD7cb93D",
        "0xD886E2286Fd1073df82462ea1822119600Af80b6"
      ],
      "transaction": {
        "type": "0x00",
        "from": "0xde3089d40f3491de794fbb1eca109fac36f889d0",
        "to": "0xffd2b4ce3c5cb598be42595b4da158f565c778a1",
        "gas": "0x1ff3e",
        "value": "0x0",
        "data": "0x971cb8fb00000000000000000000000000000000000000000000000024f9b897ef58a9220000000000000000000000006ed3783fda9ab2ca991ab6a99e574784874a7678000000000000000000000000a8c0c11bf64af62cdca6f93d3769b88bdd7cb93d000000000000000000000000d886e2286fd1073df82462ea1822119600af80b6",
        "nonce": "0x73"
      },
      "additionalContracts": [],
      "isFixedGasLimit": false
    },
    {
      "hash": "0xf1c17df076e9ad227c8af7ee31a09162b77250f466f622f733626c8c7acc19b2",
      "transactionType": "CALL",
      "contractName": null,
      "contractAddress": "0xD886E2286Fd1073df82462ea1822119600Af80b6",
      "function": null,
      "arguments": null,
      "transaction": {
        "type": "0x00",
        "from": "0xde3089d40f3491de794fbb1eca109fac36f889d0",
        "to": "0xd886e2286fd1073df82462ea1822119600af80b6",
        "gas": "0x1261d",
        "value": "0x0",
        "data": "0xa9059cbb000000000000000000000000ffd2b4ce3c5cb598be42595b4da158f565c778a10000000000000000000000000000000000000000000000001bc16d674ec80000",
        "nonce": "0x74"
      },
      "additionalContracts": [],
      "isFixedGasLimit": false
    },
    {
      "hash": "0xad41f52c94c910243d5df27f7a9a4fbc7efe7c5c56ce497d678013411965cd71",
      "transactionType": "CALL",
      "contractName": "FootyDAOAdapter",
      "contractAddress": "0xfFd2b4CE3C5CB598be42595b4DA158F565c778a1",
      "function": "createSportEvent(uint256,uint256,uint256,uint256,uint256,uint256)",
      "arguments": [
        "100000000000000000",
        "100000000000000100",
        "10000",
        "100000000000",
        "100000000000",
        "10"
      ],
      "transaction": {
        "type": "0x00",
        "from": "0xde3089d40f3491de794fbb1eca109fac36f889d0",
        "to": "0xffd2b4ce3c5cb598be42595b4da158f565c778a1",
        "gas": "0x38aa6",
        "value": "0x0",
        "data": "0xdf43232e000000000000000000000000000000000000000000000000016345785d8a0000000000000000000000000000000000000000000000000000016345785d8a00640000000000000000000000000000000000000000000000000000000000002710000000000000000000000000000000000000000000000000000000174876e800000000000000000000000000000000000000000000000000000000174876e800000000000000000000000000000000000000000000000000000000000000000a",
        "nonce": "0x75"
      },
      "additionalContracts": [],
      "isFixedGasLimit": false
    }
  ],
  "receipts": [
    {
      "transactionHash": "0xe46e316ca78c994d1dba8fc922a48e49612f8b28a439826615b6fc884e2b2422",
      "transactionIndex": "0x3",
      "blockHash": "0x562126193081b5418dac465d62a8f2375dd437ca9e11f8447c3077c458f45a6f",
      "blockNumber": "0xbfca47",
      "from": "0xDe3089d40F3491De794fBb1ECA109fAc36F889d0",
      "to": null,
      "cumulativeGasUsed": "0x208044",
      "gasUsed": "0xb09e7",
      "contractAddress": "0xfFd2b4CE3C5CB598be42595b4DA158F565c778a1",
      "logs": [],
      "status": "0x1",
      "logsBloom": "0x00000000000000000000000000000000000000000000000000000000000000000000000000000000000000000000000000000000000000000000000000000000000000000000000000000000000000000000000000000000000000000000000000000000000000000000000000000000000000000000000000000000000000000000000000000000000000000000000000000000000000000000000000000000000000000000000000000000000000000000000000000000000000000000000000000000000000000000000000000000000000000000000000000000000000000000000000000000000000000000000000000000000000000000000000000000",
      "type": "0x0",
      "effectiveGasPrice": "0xf433e"
    },
    {
      "transactionHash": "0x4ec92856ddf72fe528eeaaff5a04b558b7b66d43306152c7f43c4267dbf0fb2d",
      "transactionIndex": "0x4",
      "blockHash": "0x562126193081b5418dac465d62a8f2375dd437ca9e11f8447c3077c458f45a6f",
      "blockNumber": "0xbfca47",
      "from": "0xDe3089d40F3491De794fBb1ECA109fAc36F889d0",
      "to": "0xfFd2b4CE3C5CB598be42595b4DA158F565c778a1",
      "cumulativeGasUsed": "0x21ddd6",
      "gasUsed": "0x15d92",
      "contractAddress": null,
      "logs": [],
      "status": "0x1",
      "logsBloom": "0x00000000000000000000000000000000000000000000000000000000000000000000000000000000000000000000000000000000000000000000000000000000000000000000000000000000000000000000000000000000000000000000000000000000000000000000000000000000000000000000000000000000000000000000000000000000000000000000000000000000000000000000000000000000000000000000000000000000000000000000000000000000000000000000000000000000000000000000000000000000000000000000000000000000000000000000000000000000000000000000000000000000000000000000000000000000",
      "type": "0x0",
      "effectiveGasPrice": "0xf433e"
    },
    {
      "transactionHash": "0xf1c17df076e9ad227c8af7ee31a09162b77250f466f622f733626c8c7acc19b2",
      "transactionIndex": "0x5",
      "blockHash": "0x562126193081b5418dac465d62a8f2375dd437ca9e11f8447c3077c458f45a6f",
      "blockNumber": "0xbfca47",
      "from": "0xDe3089d40F3491De794fBb1ECA109fAc36F889d0",
      "to": "0xD886E2286Fd1073df82462ea1822119600Af80b6",
      "cumulativeGasUsed": "0x22a6f1",
      "gasUsed": "0xc91b",
      "contractAddress": null,
      "logs": [
        {
          "address": "0xD886E2286Fd1073df82462ea1822119600Af80b6",
          "topics": [
            "0xddf252ad1be2c89b69c2b068fc378daa952ba7f163c4a11628f55a4df523b3ef",
            "0x000000000000000000000000de3089d40f3491de794fbb1eca109fac36f889d0",
            "0x000000000000000000000000ffd2b4ce3c5cb598be42595b4da158f565c778a1"
          ],
          "data": "0x0000000000000000000000000000000000000000000000001bc16d674ec80000",
          "blockHash": "0x562126193081b5418dac465d62a8f2375dd437ca9e11f8447c3077c458f45a6f",
          "blockNumber": "0xbfca47",
          "transactionHash": "0xf1c17df076e9ad227c8af7ee31a09162b77250f466f622f733626c8c7acc19b2",
          "transactionIndex": "0x5",
          "logIndex": "0x13",
          "removed": false
        }
      ],
      "status": "0x1",
      "logsBloom": "0x00000000000000000000000000000000000000000000000010000000000000000000000000000000000000000200000000000000100000000000000000000040000000000000000000000008000000000000000000000000000000000800000000000000000000000000000000000000000000000000000000000010100000000000000000000000000000000000000000100000001000000000000000000000000000000000000000000000000000000000000000000000000000000000000000000002000000000000000000000000000000000000000000000000000000000000000000000000000000000000000000000000000000000000000000000000",
      "type": "0x0",
      "effectiveGasPrice": "0xf433e"
    },
    {
      "transactionHash": "0xad41f52c94c910243d5df27f7a9a4fbc7efe7c5c56ce497d678013411965cd71",
      "transactionIndex": "0x6",
      "blockHash": "0x562126193081b5418dac465d62a8f2375dd437ca9e11f8447c3077c458f45a6f",
      "blockNumber": "0xbfca47",
      "from": "0xDe3089d40F3491De794fBb1ECA109fAc36F889d0",
      "to": "0xfFd2b4CE3C5CB598be42595b4DA158F565c778a1",
      "cumulativeGasUsed": "0x253757",
      "gasUsed": "0x29066",
      "contractAddress": null,
      "logs": [
        {
          "address": "0xD886E2286Fd1073df82462ea1822119600Af80b6",
          "topics": [
            "0x8c5be1e5ebec7d5bd14f71427d1e84f3dd0314c0f7b2291e5b200ac8c7c3b925",
            "0x000000000000000000000000ffd2b4ce3c5cb598be42595b4da158f565c778a1",
            "0x000000000000000000000000a8c0c11bf64af62cdca6f93d3769b88bdd7cb93d"
          ],
          "data": "0x00000000000000000000000000000000000000000000000001ec03e6eee201c4",
          "blockHash": "0x562126193081b5418dac465d62a8f2375dd437ca9e11f8447c3077c458f45a6f",
          "blockNumber": "0xbfca47",
          "transactionHash": "0xad41f52c94c910243d5df27f7a9a4fbc7efe7c5c56ce497d678013411965cd71",
          "transactionIndex": "0x6",
          "logIndex": "0x14",
          "removed": false
        },
        {
          "address": "0xD886E2286Fd1073df82462ea1822119600Af80b6",
          "topics": [
            "0x8c5be1e5ebec7d5bd14f71427d1e84f3dd0314c0f7b2291e5b200ac8c7c3b925",
            "0x000000000000000000000000ffd2b4ce3c5cb598be42595b4da158f565c778a1",
            "0x000000000000000000000000a8c0c11bf64af62cdca6f93d3769b88bdd7cb93d"
          ],
          "data": "0x0000000000000000000000000000000000000000000000000000000000000000",
          "blockHash": "0x562126193081b5418dac465d62a8f2375dd437ca9e11f8447c3077c458f45a6f",
          "blockNumber": "0xbfca47",
          "transactionHash": "0xad41f52c94c910243d5df27f7a9a4fbc7efe7c5c56ce497d678013411965cd71",
          "transactionIndex": "0x6",
          "logIndex": "0x15",
          "removed": false
        },
        {
          "address": "0xD886E2286Fd1073df82462ea1822119600Af80b6",
          "topics": [
            "0xddf252ad1be2c89b69c2b068fc378daa952ba7f163c4a11628f55a4df523b3ef",
            "0x000000000000000000000000ffd2b4ce3c5cb598be42595b4da158f565c778a1",
            "0x0000000000000000000000000549c3fc7faece40f19f3096f7401f382db1568d"
          ],
          "data": "0x00000000000000000000000000000000000000000000000001ec03e6eee201c4",
          "blockHash": "0x562126193081b5418dac465d62a8f2375dd437ca9e11f8447c3077c458f45a6f",
          "blockNumber": "0xbfca47",
          "transactionHash": "0xad41f52c94c910243d5df27f7a9a4fbc7efe7c5c56ce497d678013411965cd71",
          "transactionIndex": "0x6",
          "logIndex": "0x16",
          "removed": false
        },
        {
          "address": "0x0549c3FC7FAecE40F19F3096F7401f382dB1568D",
          "topics": [
            "0xaffc45517195d6499808c643bd4a7b0ffeedf95bea5852840d7bfcf63f59e821"
          ],
          "data": "0x0000000000000000000000000000000000000000000000000000000000000020000000000000000000000000000000000000000000000000505d17e36030dae900000000000000000000000000000000000000000000000000000000000005c100000000000000000000000000000000000000000000000001ec03e6eee201c4000000000000000000000000ffd2b4ce3c5cb598be42595b4da158f565c778a10000000000000000000000000000000000000000000000000000000000000001000000000000000000000000000000000000000000000000000000000007a12000000000000000000000000000000000000000000000000000000000000000000000000000000000000000006ed3783fda9ab2ca991ab6a99e574784874a767800000000000000000000000000000000000000000000000000000000000001800000000000000000000000000000000000000000000000000000000000000300000000000000000000000000d886e2286fd1073df82462ea1822119600af80b637ee9959061a4b14383b5edabcc67cd9768ab4e6efd643557e490f38c17b3196000000000000000000000000000000000000000000000000000000000000016000000000000000000000000000000000000000000000000000000000000000200000000000000000000000000000000000000000000000000000000000000000000000000000000000000000000000000000000000000000000000000000004000000000000000000000000000000000000000000000000000000000000000e0000000000000000000000000de3089d40f3491de794fbb1eca109fac36f889d0000000000000000000000000000000000000000000000000016345785d8a0000000000000000000000000000000000000000000000000000016345785d8a00640000000000000000000000000000000000000000000000000000000000002710000000000000000000000000000000000000000000000000000000174876e800000000000000000000000000000000000000000000000000000000174876e800000000000000000000000000000000000000000000000000000000000000000a0000000000000000000000000000000000000000000000000000000000000000",
          "blockHash": "0x562126193081b5418dac465d62a8f2375dd437ca9e11f8447c3077c458f45a6f",
          "blockNumber": "0xbfca47",
          "transactionHash": "0xad41f52c94c910243d5df27f7a9a4fbc7efe7c5c56ce497d678013411965cd71",
          "transactionIndex": "0x6",
          "logIndex": "0x17",
          "removed": false
        },
        {
          "address": "0xfFd2b4CE3C5CB598be42595b4DA158F565c778a1",
          "topics": [
            "0x9fb548811cfe022ba6400d8533a80d63fbc228e596f93603959dc47b1886af54",
            "0x37ee9959061a4b14383b5edabcc67cd9768ab4e6efd643557e490f38c17b3196",
            "0x00000000000000000000000000000000000000000000000024f9b897ef58a922"
          ],
          "data": "0x0000000000000000000000006ed3783fda9ab2ca991ab6a99e574784874a7678000000000000000000000000d886e2286fd1073df82462ea1822119600af80b600000000000000000000000000000000000000000000000001ec03e6eee201c4",
          "blockHash": "0x562126193081b5418dac465d62a8f2375dd437ca9e11f8447c3077c458f45a6f",
          "blockNumber": "0xbfca47",
          "transactionHash": "0xad41f52c94c910243d5df27f7a9a4fbc7efe7c5c56ce497d678013411965cd71",
          "transactionIndex": "0x6",
          "logIndex": "0x18",
          "removed": false
        }
      ],
      "status": "0x1",
      "logsBloom": "0x01000500000020000000000000000000000000000000000010000000008000000000800000000000000000000200000010000000000000000101000000200000000000000000000000000808000000000000000000000000000000200800000000000000000000000000000000020040000000010000000000000010500002000000000000000000000000000000000000100000000000000000010000000000020000000000000000000000000004000080000000000000000000000000000000000002000000000000000000000000000000000000000010000001000000000010000000000000000000000000000000000000000000000800000000000000",
      "type": "0x0",
      "effectiveGasPrice": "0xf433e"
    }
  ],
  "libraries": [],
  "pending": [],
  "returns": {},
  "timestamp": 1700331939,
  "chain": 84531,
  "multi": false,
  "commit": "ecbf677"
}