{
  "transactions": [
    {
      "hash": "0x3c8e1699d3082b38ae05a65edb2e384cc778ac79505f6c5e957db2e35fbc4cc8",
      "transactionType": "CREATE",
      "contractName": "FootyDAOAdapter",
      "contractAddress": "0x4430B6CbF7F4be6aC92D213a64962a6e75d5bF3c",
      "function": null,
      "arguments": null,
      "transaction": {
        "type": "0x00",
        "from": "0xde3089d40f3491de794fbb1eca109fac36f889d0",
        "gas": "0xe4db5",
        "value": "0x0",
        "data": "0x608060405234801561001057600080fd5b50610c15806100206000396000f3fe6080604052600436106100865760003560e01c8063aff3ae2911610059578063aff3ae291461019f578063b430bb48146101c6578063d6a0d8f3146101db578063df43232e146101ee578063e16e632c1461020e57600080fd5b80630a9e6a701461008b5780636ef0214c146100ad5780637725135b146100ec578063971cb8fb14610124575b600080fd5b34801561009757600080fd5b506100ab6100a636600461086a565b61022e565b005b3480156100b957600080fd5b506000546100ce9067ffffffffffffffff1681565b60405167ffffffffffffffff90911681526020015b60405180910390f35b3480156100f857600080fd5b5060025461010c906001600160a01b031681565b6040516001600160a01b0390911681526020016100e3565b34801561013057600080fd5b506100ab61013f366004610905565b600080546001600160a01b03948516600160401b026001600160e01b031990911667ffffffffffffffff9096169590951794909417909355600180549183166001600160a01b031992831617905560028054939092169216919091179055565b3480156101ab57600080fd5b5060005461010c90600160401b90046001600160a01b031681565b3480156101d257600080fd5b506100ab61029b565b6100ab6101e9366004610968565b610383565b3480156101fa57600080fd5b506100ab610209366004610981565b6103f0565b34801561021a57600080fd5b5060015461010c906001600160a01b031681565b6040805180820190915260009080600481526020018585853360405160200161025a94939291906109c4565b60408051601f1981840301815291815291525161027a9190602001610a76565b604051602081830303815290604052905061029481610476565b5050505050565b6002546040516370a0823160e01b81523060048201526001600160a01b039091169063a9059cbb90339083906370a0823190602401602060405180830381865afa1580156102ed573d6000803e3d6000fd5b505050506040513d601f19601f820116820180604052508101906103119190610ac3565b6040516001600160e01b031960e085901b1681526001600160a01b03909216600483015260248201526044016020604051808303816000875af115801561035c573d6000803e3d6000fd5b505050506040513d601f19601f820116820180604052508101906103809190610adc565b50565b6040805180820182526001815281516020808201859052339382019390935234606082015260009282019060800160408051601f198184030181529181529152516103d19190602001610a76565b60405160208183030381529060405290506103eb81610476565b505050565b6040805180820182526000808252825160208082018b9052938101899052606081018890526080810187905260a0810186905260c08101859052909282019060e00160408051601f198184030181529181529152516104529190602001610a76565b604051602081830303815290604052905061046c81610476565b5050505050505050565b6040805160a0810190915260008054600160401b90046001600160a01b031660c08301529081908060e0810160408051808303601f1901815291815290825260208083018790528151600080825291810183529290910191906104fb565b60408051808201909152600080825260208201528152602001906001900390816104d45790505b5081526002546001600160a01b03166020808301919091526040805180820182526207a12080825260009184019182528251602481019190915290511515604480830191909152825180830390910181526064909101825291820180516001600160e01b03166397a657c960e01b17905290910152600154600080546040516320487ded60e01b815293945090926001600160a01b03909216916320487ded916105b69167ffffffffffffffff909116908690600401610b05565b602060405180830381865afa1580156105d3573d6000803e3d6000fd5b505050506040513d601f19601f820116820180604052508101906105f79190610ac3565b6002546040516370a0823160e01b81523060048201529192506001600160a01b0316906370a0823190602401602060405180830381865afa158015610640573d6000803e3d6000fd5b505050506040513d601f19601f820116820180604052508101906106649190610ac3565b8111156106ff576002546040516370a0823160e01b81523060048201526001600160a01b03909116906370a0823190602401602060405180830381865afa1580156106b3573d6000803e3d6000fd5b505050506040513d601f19601f820116820180604052508101906106d79190610ac3565b604051634787a10360e11b815260048101919091526024810182905260440160405180910390fd5b60025460015460405163095ea7b360e01b81526001600160a01b0391821660048201526024810184905291169063095ea7b3906044016020604051808303816000875af1158015610754573d6000803e3d6000fd5b505050506040513d601f19601f820116820180604052508101906107789190610adc565b506001546000546040516396f4e9f960e01b81526001600160a01b03909216916396f4e9f9916107b99167ffffffffffffffff909116908690600401610b05565b6020604051808303816000875af11580156107d8573d6000803e3d6000fd5b505050506040513d601f19601f820116820180604052508101906107fc9190610ac3565b600054600254604080516001600160a01b03600160401b8504811682529092166020830152810184905291945067ffffffffffffffff169084907f9fb548811cfe022ba6400d8533a80d63fbc228e596f93603959dc47b1886af549060600160405180910390a35050919050565b60008060006040848603121561087f57600080fd5b83359250602084013567ffffffffffffffff8082111561089e57600080fd5b818601915086601f8301126108b257600080fd5b8135818111156108c157600080fd5b8760208260051b85010111156108d657600080fd5b6020830194508093505050509250925092565b80356001600160a01b038116811461090057600080fd5b919050565b6000806000806080858703121561091b57600080fd5b843567ffffffffffffffff8116811461093357600080fd5b9350610941602086016108e9565b925061094f604086016108e9565b915061095d606086016108e9565b905092959194509250565b60006020828403121561097a57600080fd5b5035919050565b60008060008060008060c0878903121561099a57600080fd5b505084359660208601359650604086013595606081013595506080810135945060a0013592509050565b84815260606020808301829052908201849052600090859060808401835b87811015610a0e576001600160a01b036109fb856108e9565b16825292820192908201906001016109e2565b506001600160a01b039590951660409490940193909352509195945050505050565b6000815180845260005b81811015610a5657602081850181015186830182015201610a3a565b506000602082860101526020601f19601f83011685010191505092915050565b602081526000825160088110610a9c57634e487b7160e01b600052602160045260246000fd5b806020840152506020830151604080840152610abb6060840182610a30565b949350505050565b600060208284031215610ad557600080fd5b5051919050565b600060208284031215610aee57600080fd5b81518015158114610afe57600080fd5b9392505050565b6000604067ffffffffffffffff8516835260208181850152845160a083860152610b3260e0860182610a30565b905081860151603f1980878403016060880152610b4f8383610a30565b88860151888203830160808a01528051808352908601945060009350908501905b80841015610ba257845180516001600160a01b0316835286015186830152938501936001939093019290860190610b70565b5060608901516001600160a01b031660a08901526080890151888203830160c08a01529550610bd18187610a30565b9a995050505050505050505056fea2646970667358221220345cfc702bc5361e10a6ae1871b963f09f1293ac42162211171e2a94b1aa1c1f64736f6c63430008150033",
        "nonce": "0x582"
      },
      "additionalContracts": [],
      "isFixedGasLimit": false
    },
    {
      "hash": "0x69c95613e40b56e449750816b8d90f876843746e6e1461eae125f06da97f030b",
      "transactionType": "CALL",
      "contractName": "FootyDAOAdapter",
      "contractAddress": "0x4430B6CbF7F4be6aC92D213a64962a6e75d5bF3c",
      "function": "initialize(uint64,address,address,address)",
      "arguments": [
        "2664363617261496610",
        "0x9dE69392ec264C8FBc95720CcCC3ae5D3F4A6a8d",
        "0x70499c328e1E2a3c41108bd3730F6670a44595D1",
        "0x326C977E6efc84E512bB9C30f76E30c160eD06FB"
      ],
      "transaction": {
        "type": "0x00",
        "from": "0xde3089d40f3491de794fbb1eca109fac36f889d0",
        "to": "0x4430b6cbf7f4be6ac92d213a64962a6e75d5bf3c",
        "gas": "0x1e2e7",
        "value": "0x0",
        "data": "0x971cb8fb00000000000000000000000000000000000000000000000024f9b897ef58a9220000000000000000000000009de69392ec264c8fbc95720cccc3ae5d3f4a6a8d00000000000000000000000070499c328e1e2a3c41108bd3730f6670a44595d1000000000000000000000000326c977e6efc84e512bb9c30f76e30c160ed06fb",
        "nonce": "0x583"
      },
      "additionalContracts": [],
      "isFixedGasLimit": false
    },
    {
      "hash": "0xae40b82a77fd7cd6c6a4b4819da134bd9f034031ee575c626b9c553de6e5397e",
      "transactionType": "CALL",
      "contractName": "LinkToken",
      "contractAddress": "0x326C977E6efc84E512bB9C30f76E30c160eD06FB",
      "function": "transfer(address,uint256)",
      "arguments": [
        "0x4430B6CbF7F4be6aC92D213a64962a6e75d5bF3c",
        "2000000000000000000"
      ],
      "transaction": {
        "type": "0x00",
        "from": "0xde3089d40f3491de794fbb1eca109fac36f889d0",
        "to": "0x326c977e6efc84e512bb9c30f76e30c160ed06fb",
        "gas": "0x11783",
        "value": "0x0",
        "data": "0xa9059cbb0000000000000000000000004430b6cbf7f4be6ac92d213a64962a6e75d5bf3c0000000000000000000000000000000000000000000000001bc16d674ec80000",
        "nonce": "0x584"
      },
      "additionalContracts": [],
      "isFixedGasLimit": false
    },
    {
      "hash": "0xcf4d62258c9704e3bc2a1241737afe7d22042a77972dd510267596d4e1fc20d2",
      "transactionType": "CALL",
      "contractName": "FootyDAOAdapter",
      "contractAddress": "0x4430B6CbF7F4be6aC92D213a64962a6e75d5bF3c",
      "function": "createSportEvent(uint256,uint256,uint256,uint256,uint256,uint256)",
      "arguments": [
        "100000000000000000",
        "100000000000000100",
        "10000",
        "100000000000",
        "100000000000",
        "10"
      ],
      "transaction": {
        "type": "0x00",
        "from": "0xde3089d40f3491de794fbb1eca109fac36f889d0",
        "to": "0x4430b6cbf7f4be6ac92d213a64962a6e75d5bf3c",
        "gas": "0x37c7b",
        "value": "0x0",
        "data": "0xdf43232e000000000000000000000000000000000000000000000000016345785d8a0000000000000000000000000000000000000000000000000000016345785d8a00640000000000000000000000000000000000000000000000000000000000002710000000000000000000000000000000000000000000000000000000174876e800000000000000000000000000000000000000000000000000000000174876e800000000000000000000000000000000000000000000000000000000000000000a",
        "nonce": "0x585"
      },
      "additionalContracts": [],
      "isFixedGasLimit": false
    }
  ],
  "receipts": [
    {
      "transactionHash": "0x3c8e1699d3082b38ae05a65edb2e384cc778ac79505f6c5e957db2e35fbc4cc8",
      "transactionIndex": "0x3",
      "blockHash": "0xf21011c930e2a9760dc1598bca6ba5ae877e5d94f36bf7dceb8077111850e688",
      "blockNumber": "0x2895477",
      "from": "0xDe3089d40F3491De794fBb1ECA109fAc36F889d0",
      "to": null,
      "cumulativeGasUsed": "0xdc789",
      "gasUsed": "0xb0177",
      "contractAddress": "0x4430B6CbF7F4be6aC92D213a64962a6e75d5bF3c",
      "logs": [
        {
          "address": "0x0000000000000000000000000000000000001010",
          "topics": [
            "0x4dfe1bbbcf077ddc3e01291eea2d5c70c2b422b415d95645b9adcfd678cb1d63",
            "0x0000000000000000000000000000000000000000000000000000000000001010",
            "0x000000000000000000000000de3089d40f3491de794fbb1eca109fac36f889d0",
            "0x000000000000000000000000c26880a0af2ea0c7e8130e6ec47af756465452e8"
          ],
          "data": "0x000000000000000000000000000000000000000000000000000667fafa5abf000000000000000000000000000000000000000000000000002bb982d3e7dc78000000000000000000000000000000000000000000000022a172a288a1e518e3ce0000000000000000000000000000000000000000000000002bb31ad8ed81b9000000000000000000000000000000000000000000000022a172a8f09cdf73a2ce",
          "blockHash": "0xf21011c930e2a9760dc1598bca6ba5ae877e5d94f36bf7dceb8077111850e688",
          "blockNumber": "0x2895477",
          "transactionHash": "0x3c8e1699d3082b38ae05a65edb2e384cc778ac79505f6c5e957db2e35fbc4cc8",
          "transactionIndex": "0x3",
          "logIndex": "0x8",
          "removed": false
        }
      ],
      "status": "0x1",
      "logsBloom": "0x00000000000000020000000000000000000000000000000000000000000000000000000000000000000000000000000000008000100000000000000000000040000000000000000000000000000000800000000000000000000100000000000000000000000000000000000000000000000000000000000080000000000000000000000000000000000000000000000000000000001000000000000000000000200000000000000020000000000000000001000000000000000000000000004000000000000000000001000000000000000000000000000000100000000000000000000000000000000000000000000000000000000000000000000000100000",
      "type": "0x0",
      "effectiveGasPrice": "0x9502f90f"
    },
    {
      "transactionHash": "0x69c95613e40b56e449750816b8d90f876843746e6e1461eae125f06da97f030b",
      "transactionIndex": "0x0",
      "blockHash": "0xe15722f8c74124228fa7a979013335d1958eace649e28b4cda01dad2553b0a63",
      "blockNumber": "0x2895478",
      "from": "0xDe3089d40F3491De794fBb1ECA109fAc36F889d0",
      "to": "0x4430B6CbF7F4be6aC92D213a64962a6e75d5bF3c",
      "cumulativeGasUsed": "0x15d9e",
      "gasUsed": "0x15d9e",
      "contractAddress": null,
      "logs": [
        {
          "address": "0x0000000000000000000000000000000000001010",
          "topics": [
            "0x4dfe1bbbcf077ddc3e01291eea2d5c70c2b422b415d95645b9adcfd678cb1d63",
            "0x0000000000000000000000000000000000000000000000000000000000001010",
            "0x000000000000000000000000de3089d40f3491de794fbb1eca109fac36f889d0",
            "0x000000000000000000000000c26880a0af2ea0c7e8130e6ec47af756465452e8"
          ],
          "data": "0x0000000000000000000000000000000000000000000000000000cb81054aae000000000000000000000000000000000000000000000000002bb31ad8ecdca3070000000000000000000000000000000000000000000022a172ac6b6cb540fd910000000000000000000000000000000000000000000000002bb24f57e791f5070000000000000000000000000000000000000000000022a172ad36edba8bab91",
          "blockHash": "0xe15722f8c74124228fa7a979013335d1958eace649e28b4cda01dad2553b0a63",
          "blockNumber": "0x2895478",
          "transactionHash": "0x69c95613e40b56e449750816b8d90f876843746e6e1461eae125f06da97f030b",
          "transactionIndex": "0x0",
          "logIndex": "0x0",
          "removed": false
        }
      ],
      "status": "0x1",
      "logsBloom": "0x00000000000000020000000000000000000000000000000000000000000000000000000000000000000000000000000000008000100000000000000000000040000000000000000000000000000000800000000000000000000100000000000000000000000000000000000000000000000000000000000080000000000000000000000000000000000000000000000000000000001000000000000000000000200000000000000020000000000000000001000000000000000000000000004000000000000000000001000000000000000000000000000000100000000000000000000000000000000000000000000000000000000000000000000000100000",
      "type": "0x0",
      "effectiveGasPrice": "0x9502f90f"
    },
    {
      "transactionHash": "0xae40b82a77fd7cd6c6a4b4819da134bd9f034031ee575c626b9c553de6e5397e",
      "transactionIndex": "0x1",
      "blockHash": "0xe15722f8c74124228fa7a979013335d1958eace649e28b4cda01dad2553b0a63",
      "blockNumber": "0x2895478",
      "from": "0xDe3089d40F3491De794fBb1ECA109fAc36F889d0",
      "to": "0x326C977E6efc84E512bB9C30f76E30c160eD06FB",
      "cumulativeGasUsed": "0x227fc",
      "gasUsed": "0xca5e",
      "contractAddress": null,
      "logs": [
        {
          "address": "0x326C977E6efc84E512bB9C30f76E30c160eD06FB",
          "topics": [
            "0xddf252ad1be2c89b69c2b068fc378daa952ba7f163c4a11628f55a4df523b3ef",
            "0x000000000000000000000000de3089d40f3491de794fbb1eca109fac36f889d0",
            "0x0000000000000000000000004430b6cbf7f4be6ac92d213a64962a6e75d5bf3c"
          ],
          "data": "0x0000000000000000000000000000000000000000000000001bc16d674ec80000",
          "blockHash": "0xe15722f8c74124228fa7a979013335d1958eace649e28b4cda01dad2553b0a63",
          "blockNumber": "0x2895478",
          "transactionHash": "0xae40b82a77fd7cd6c6a4b4819da134bd9f034031ee575c626b9c553de6e5397e",
          "transactionIndex": "0x1",
          "logIndex": "0x1",
          "removed": false
        },
        {
          "address": "0x0000000000000000000000000000000000001010",
          "topics": [
            "0x4dfe1bbbcf077ddc3e01291eea2d5c70c2b422b415d95645b9adcfd678cb1d63",
            "0x0000000000000000000000000000000000000000000000000000000000001010",
            "0x000000000000000000000000de3089d40f3491de794fbb1eca109fac36f889d0",
            "0x000000000000000000000000c26880a0af2ea0c7e8130e6ec47af756465452e8"
          ],
          "data": "0x000000000000000000000000000000000000000000000000000075cb0f916e000000000000000000000000000000000000000000000000002bb24f57e77d78c50000000000000000000000000000000000000000000022a172ad36edba8bab910000000000000000000000000000000000000000000000002bb1d98cd7ec0ac50000000000000000000000000000000000000000000022a172adacb8ca1d1991",
          "blockHash": "0xe15722f8c74124228fa7a979013335d1958eace649e28b4cda01dad2553b0a63",
          "blockNumber": "0x2895478",
          "transactionHash": "0xae40b82a77fd7cd6c6a4b4819da134bd9f034031ee575c626b9c553de6e5397e",
          "transactionIndex": "0x1",
          "logIndex": "0x2",
          "removed": false
        }
      ],
      "status": "0x1",
      "logsBloom": "0x00000000000000060000000000000000000000000000000000000000000000000000000000000000000000000000000000008000100000000000000000000040000000000000000000000008000000800000001000000000000100000000000000000000000000000000000000000000000000000000000080000010000000000000000000000000000000000000000000000000001001000000000000000000200000000000000020000000000000000001000000000000000000000000004000000002000000000001000000000000000000000000000000900000000000000800000000000000001000000000000000000000000000000000000000100000",
      "type": "0x0",
      "effectiveGasPrice": "0x9502f90f"
    },
    {
      "transactionHash": "0xcf4d62258c9704e3bc2a1241737afe7d22042a77972dd510267596d4e1fc20d2",
      "transactionIndex": "0x2",
      "blockHash": "0xf53373193160c744fbbc202235503a1f4ecd1076aebeb79b794acf716f5a3367",
      "blockNumber": "0x289547a",
      "from": "0xDe3089d40F3491De794fBb1ECA109fAc36F889d0",
      "to": "0x4430B6CbF7F4be6aC92D213a64962a6e75d5bF3c",
      "cumulativeGasUsed": "0xb4810",
      "gasUsed": "0x28624",
      "contractAddress": null,
      "logs": [
        {
          "address": "0x326C977E6efc84E512bB9C30f76E30c160eD06FB",
          "topics": [
            "0x8c5be1e5ebec7d5bd14f71427d1e84f3dd0314c0f7b2291e5b200ac8c7c3b925",
            "0x0000000000000000000000004430b6cbf7f4be6ac92d213a64962a6e75d5bf3c",
            "0x00000000000000000000000070499c328e1e2a3c41108bd3730f6670a44595d1"
          ],
          "data": "0x000000000000000000000000000000000000000000000000024874ccc271c262",
          "blockHash": "0xf53373193160c744fbbc202235503a1f4ecd1076aebeb79b794acf716f5a3367",
          "blockNumber": "0x289547a",
          "transactionHash": "0xcf4d62258c9704e3bc2a1241737afe7d22042a77972dd510267596d4e1fc20d2",
          "transactionIndex": "0x2",
          "logIndex": "0xb",
          "removed": false
        },
        {
          "address": "0x326C977E6efc84E512bB9C30f76E30c160eD06FB",
          "topics": [
            "0xddf252ad1be2c89b69c2b068fc378daa952ba7f163c4a11628f55a4df523b3ef",
            "0x0000000000000000000000004430b6cbf7f4be6ac92d213a64962a6e75d5bf3c",
            "0x000000000000000000000000303a67f29ebd2a42b0afea3e63d7dfdd882b8ab4"
          ],
          "data": "0x000000000000000000000000000000000000000000000000024874ccc271c262",
          "blockHash": "0xf53373193160c744fbbc202235503a1f4ecd1076aebeb79b794acf716f5a3367",
          "blockNumber": "0x289547a",
          "transactionHash": "0xcf4d62258c9704e3bc2a1241737afe7d22042a77972dd510267596d4e1fc20d2",
          "transactionIndex": "0x2",
          "logIndex": "0xc",
          "removed": false
        },
        {
          "address": "0x303a67f29Ebd2A42b0afEa3E63D7DFDd882b8Ab4",
          "topics": [
            "0xaffc45517195d6499808c643bd4a7b0ffeedf95bea5852840d7bfcf63f59e821"
          ],
          "data": "0x0000000000000000000000000000000000000000000000000000000000000020000000000000000000000000000000000000000000000000adecc60412ce25a500000000000000000000000000000000000000000000000000000000000006a2000000000000000000000000000000000000000000000000024874ccc271c2620000000000000000000000004430b6cbf7f4be6ac92d213a64962a6e75d5bf3c0000000000000000000000000000000000000000000000000000000000000001000000000000000000000000000000000000000000000000000000000007a12000000000000000000000000000000000000000000000000000000000000000000000000000000000000000009de69392ec264c8fbc95720cccc3ae5d3f4a6a8d000000000000000000000000000000000000000000000000000000000000018000000000000000000000000000000000000000000000000000000000000002e0000000000000000000000000326c977e6efc84e512bb9c30f76e30c160ed06fb440f77c3894823cd801378f199ea6f945a5c5f90d324e712a7450559c6851592000000000000000000000000000000000000000000000000000000000000014000000000000000000000000000000000000000000000000000000000000000200000000000000000000000000000000000000000000000000000000000000000000000000000000000000000000000000000000000000000000000000000004000000000000000000000000000000000000000000000000000000000000000c0000000000000000000000000000000000000000000000000016345785d8a0000000000000000000000000000000000000000000000000000016345785d8a00640000000000000000000000000000000000000000000000000000000000002710000000000000000000000000000000000000000000000000000000174876e800000000000000000000000000000000000000000000000000000000174876e800000000000000000000000000000000000000000000000000000000000000000a0000000000000000000000000000000000000000000000000000000000000000",
          "blockHash": "0xf53373193160c744fbbc202235503a1f4ecd1076aebeb79b794acf716f5a3367",
          "blockNumber": "0x289547a",
          "transactionHash": "0xcf4d62258c9704e3bc2a1241737afe7d22042a77972dd510267596d4e1fc20d2",
          "transactionIndex": "0x2",
          "logIndex": "0xd",
          "removed": false
        },
        {
          "address": "0x4430B6CbF7F4be6aC92D213a64962a6e75d5bF3c",
          "topics": [
            "0x9fb548811cfe022ba6400d8533a80d63fbc228e596f93603959dc47b1886af54",
            "0x440f77c3894823cd801378f199ea6f945a5c5f90d324e712a7450559c6851592",
            "0x00000000000000000000000000000000000000000000000024f9b897ef58a922"
          ],
          "data": "0x0000000000000000000000009de69392ec264c8fbc95720cccc3ae5d3f4a6a8d000000000000000000000000326c977e6efc84e512bb9c30f76e30c160ed06fb000000000000000000000000000000000000000000000000024874ccc271c262",
          "blockHash": "0xf53373193160c744fbbc202235503a1f4ecd1076aebeb79b794acf716f5a3367",
          "blockNumber": "0x289547a",
          "transactionHash": "0xcf4d62258c9704e3bc2a1241737afe7d22042a77972dd510267596d4e1fc20d2",
          "transactionIndex": "0x2",
          "logIndex": "0xe",
          "removed": false
        },
        {
          "address": "0x0000000000000000000000000000000000001010",
          "topics": [
            "0x4dfe1bbbcf077ddc3e01291eea2d5c70c2b422b415d95645b9adcfd678cb1d63",
            "0x0000000000000000000000000000000000000000000000000000000000001010",
            "0x000000000000000000000000de3089d40f3491de794fbb1eca109fac36f889d0",
            "0x000000000000000000000000c26880a0af2ea0c7e8130e6ec47af756465452e8"
          ],
          "data": "0x0000000000000000000000000000000000000000000000000001781a74c104000000000000000000000000000000000000000000000000002bb1d98cd7e02f430000000000000000000000000000000000000000000022a172c092ad34d77b2a0000000000000000000000000000000000000000000000002bb06172631f2b430000000000000000000000000000000000000000000022a172c20ac7a9987f2a",
          "blockHash": "0xf53373193160c744fbbc202235503a1f4ecd1076aebeb79b794acf716f5a3367",
          "blockNumber": "0x289547a",
          "transactionHash": "0xcf4d62258c9704e3bc2a1241737afe7d22042a77972dd510267596d4e1fc20d2",
          "transactionIndex": "0x2",
          "logIndex": "0xf",
          "removed": false
        }
      ],
      "status": "0x1",
      "logsBloom": "0x00002100000000060000000000000000000000000000000000000000008000000002800000000000000000000000000000008000100000000000000000200048000000000000000080000808000000800000041800000000000100200000000000000001000000000000000000000040000000810000000080000010000000000000000000000000000000000000000000000000101001000000200000000000220200000000000024000000000000000001000000000000000000000000004000000002010000000001000000000000000000000000000010900001002000000810000000000000001000000000000100000000000000000000000000100000",
      "type": "0x0",
      "effectiveGasPrice": "0x9502f90f"
    }
  ],
  "libraries": [],
  "pending": [],
  "returns": {},
  "timestamp": 1700322602,
  "chain": 80001,
  "multi": false,
  "commit": "ecbf677"
}