{
  "transactions": [
    {
      "hash": "0x732a2b37a3ae1554f04ca92ad75268ac201b578579e537c0952d87d75cdec0a6",
      "transactionType": "CREATE",
      "contractName": "FootyDAOAdapter",
      "contractAddress": "0xC150cBD1a99036989deBCFBFE820829197bA04aA",
      "function": null,
      "arguments": null,
      "transaction": {
        "type": "0x00",
        "from": "0xde3089d40f3491de794fbb1eca109fac36f889d0",
        "gas": "0xe58ad",
        "value": "0x0",
        "data": "0x608060405234801561001057600080fd5b50610c1f806100206000396000f3fe6080604052600436106100865760003560e01c8063aff3ae2911610059578063aff3ae291461019f578063b430bb48146101c6578063d6a0d8f3146101db578063df43232e146101ee578063e16e632c1461020e57600080fd5b80630a9e6a701461008b5780636ef0214c146100ad5780637725135b146100ec578063971cb8fb14610124575b600080fd5b34801561009757600080fd5b506100ab6100a6366004610874565b61022e565b005b3480156100b957600080fd5b506000546100ce9067ffffffffffffffff1681565b60405167ffffffffffffffff90911681526020015b60405180910390f35b3480156100f857600080fd5b5060025461010c906001600160a01b031681565b6040516001600160a01b0390911681526020016100e3565b34801561013057600080fd5b506100ab61013f36600461090f565b600080546001600160a01b03948516600160401b026001600160e01b031990911667ffffffffffffffff9096169590951794909417909355600180549183166001600160a01b031992831617905560028054939092169216919091179055565b3480156101ab57600080fd5b5060005461010c90600160401b90046001600160a01b031681565b3480156101d257600080fd5b506100ab61029b565b6100ab6101e9366004610972565b610383565b3480156101fa57600080fd5b506100ab61020936600461098b565b6103f0565b34801561021a57600080fd5b5060015461010c906001600160a01b031681565b6040805180820190915260009080600481526020018585853360405160200161025a94939291906109ce565b60408051601f1981840301815291815291525161027a9190602001610a80565b604051602081830303815290604052905061029481610480565b5050505050565b6002546040516370a0823160e01b81523060048201526001600160a01b039091169063a9059cbb90339083906370a0823190602401602060405180830381865afa1580156102ed573d6000803e3d6000fd5b505050506040513d601f19601f820116820180604052508101906103119190610acd565b6040516001600160e01b031960e085901b1681526001600160a01b03909216600483015260248201526044016020604051808303816000875af115801561035c573d6000803e3d6000fd5b505050506040513d601f19601f820116820180604052508101906103809190610ae6565b50565b6040805180820182526001815281516020808201859052339382019390935234606082015260009282019060800160408051601f198184030181529181529152516103d19190602001610a80565b60405160208183030381529060405290506103eb81610480565b505050565b60408051808201825260008082528251336020808301919091529381018a9052606081018990526080810188905260a0810187905260c0810186905260e0810185905290928201906101000160408051601f1981840301815291815291525161045c9190602001610a80565b604051602081830303815290604052905061047681610480565b5050505050505050565b6040805160a0810190915260008054600160401b90046001600160a01b031660c08301529081908060e0810160408051808303601f190181529181529082526020808301879052815160008082529181018352929091019190610505565b60408051808201909152600080825260208201528152602001906001900390816104de5790505b5081526002546001600160a01b03166020808301919091526040805180820182526207a12080825260009184019182528251602481019190915290511515604480830191909152825180830390910181526064909101825291820180516001600160e01b03166397a657c960e01b17905290910152600154600080546040516320487ded60e01b815293945090926001600160a01b03909216916320487ded916105c09167ffffffffffffffff909116908690600401610b0f565b602060405180830381865afa1580156105dd573d6000803e3d6000fd5b505050506040513d601f19601f820116820180604052508101906106019190610acd565b6002546040516370a0823160e01b81523060048201529192506001600160a01b0316906370a0823190602401602060405180830381865afa15801561064a573d6000803e3d6000fd5b505050506040513d601f19601f8201168201806040525081019061066e9190610acd565b811115610709576002546040516370a0823160e01b81523060048201526001600160a01b03909116906370a0823190602401602060405180830381865afa1580156106bd573d6000803e3d6000fd5b505050506040513d601f19601f820116820180604052508101906106e19190610acd565b604051634787a10360e11b815260048101919091526024810182905260440160405180910390fd5b60025460015460405163095ea7b360e01b81526001600160a01b0391821660048201526024810184905291169063095ea7b3906044016020604051808303816000875af115801561075e573d6000803e3d6000fd5b505050506040513d601f19601f820116820180604052508101906107829190610ae6565b506001546000546040516396f4e9f960e01b81526001600160a01b03909216916396f4e9f9916107c39167ffffffffffffffff909116908690600401610b0f565b6020604051808303816000875af11580156107e2573d6000803e3d6000fd5b505050506040513d601f19601f820116820180604052508101906108069190610acd565b600054600254604080516001600160a01b03600160401b8504811682529092166020830152810184905291945067ffffffffffffffff169084907f9fb548811cfe022ba6400d8533a80d63fbc228e596f93603959dc47b1886af549060600160405180910390a35050919050565b60008060006040848603121561088957600080fd5b83359250602084013567ffffffffffffffff808211156108a857600080fd5b818601915086601f8301126108bc57600080fd5b8135818111156108cb57600080fd5b8760208260051b85010111156108e057600080fd5b6020830194508093505050509250925092565b80356001600160a01b038116811461090a57600080fd5b919050565b6000806000806080858703121561092557600080fd5b843567ffffffffffffffff8116811461093d57600080fd5b935061094b602086016108f3565b9250610959604086016108f3565b9150610967606086016108f3565b905092959194509250565b60006020828403121561098457600080fd5b5035919050565b60008060008060008060c087890312156109a457600080fd5b505084359660208601359650604086013595606081013595506080810135945060a0013592509050565b84815260606020808301829052908201849052600090859060808401835b87811015610a18576001600160a01b03610a05856108f3565b16825292820192908201906001016109ec565b506001600160a01b039590951660409490940193909352509195945050505050565b6000815180845260005b81811015610a6057602081850181015186830182015201610a44565b506000602082860101526020601f19601f83011685010191505092915050565b602081526000825160088110610aa657634e487b7160e01b600052602160045260246000fd5b806020840152506020830151604080840152610ac56060840182610a3a565b949350505050565b600060208284031215610adf57600080fd5b5051919050565b600060208284031215610af857600080fd5b81518015158114610b0857600080fd5b9392505050565b6000604067ffffffffffffffff8516835260208181850152845160a083860152610b3c60e0860182610a3a565b905081860151603f1980878403016060880152610b598383610a3a565b88860151888203830160808a01528051808352908601945060009350908501905b80841015610bac57845180516001600160a01b0316835286015186830152938501936001939093019290860190610b7a565b5060608901516001600160a01b031660a08901526080890151888203830160c08a01529550610bdb8187610a3a565b9a995050505050505050505056fea2646970667358221220feb01a7e03d2be4487e32f34aa2e0f96e561c4916fb9ba28c0594da6cf7a378f64736f6c63430008150033",
        "nonce": "0x586"
      },
      "additionalContracts": [],
      "isFixedGasLimit": false
    },
    {
      "hash": "0x48d676cc16fd1581ebbbc5d44acdef00d40e4a9d25fed22cfe4a352fe5851425",
      "transactionType": "CALL",
      "contractName": "FootyDAOAdapter",
      "contractAddress": "0xC150cBD1a99036989deBCFBFE820829197bA04aA",
      "function": "initialize(uint64,address,address,address)",
      "arguments": [
        "2664363617261496610",
        "0x6eD3783FdA9ab2Ca991AB6a99e574784874A7678",
        "0x70499c328e1E2a3c41108bd3730F6670a44595D1",
        "0x326C977E6efc84E512bB9C30f76E30c160eD06FB"
      ],
      "transaction": {
        "type": "0x00",
        "from": "0xde3089d40f3491de794fbb1eca109fac36f889d0",
        "to": "0xc150cbd1a99036989debcfbfe820829197ba04aa",
        "gas": "0x1e2e7",
        "value": "0x0",
        "data": "0x971cb8fb00000000000000000000000000000000000000000000000024f9b897ef58a9220000000000000000000000006ed3783fda9ab2ca991ab6a99e574784874a767800000000000000000000000070499c328e1e2a3c41108bd3730f6670a44595d1000000000000000000000000326c977e6efc84e512bb9c30f76e30c160ed06fb",
        "nonce": "0x587"
      },
      "additionalContracts": [],
      "isFixedGasLimit": false
    },
    {
      "hash": "0xdfa2f79daa56849d0a9631a40da79f3a9d594be280362ecc59fe3e400029749a",
      "transactionType": "CALL",
      "contractName": "LinkToken",
      "contractAddress": "0x326C977E6efc84E512bB9C30f76E30c160eD06FB",
      "function": "transfer(address,uint256)",
      "arguments": [
        "0xC150cBD1a99036989deBCFBFE820829197bA04aA",
        "2000000000000000000"
      ],
      "transaction": {
        "type": "0x00",
        "from": "0xde3089d40f3491de794fbb1eca109fac36f889d0",
        "to": "0x326c977e6efc84e512bb9c30f76e30c160ed06fb",
        "gas": "0x11783",
        "value": "0x0",
        "data": "0xa9059cbb000000000000000000000000c150cbd1a99036989debcfbfe820829197ba04aa0000000000000000000000000000000000000000000000001bc16d674ec80000",
        "nonce": "0x588"
      },
      "additionalContracts": [],
      "isFixedGasLimit": false
    },
    {
      "hash": "0x801edf2b514cc9eef1fd22cb92860cac25fa29548b861083b271a542b303d1eb",
      "transactionType": "CALL",
      "contractName": "FootyDAOAdapter",
      "contractAddress": "0xC150cBD1a99036989deBCFBFE820829197bA04aA",
      "function": "createSportEvent(uint256,uint256,uint256,uint256,uint256,uint256)",
      "arguments": [
        "100000000000000000",
        "100000000000000100",
        "10000",
        "100000000000",
        "100000000000",
        "10"
      ],
      "transaction": {
        "type": "0x00",
        "from": "0xde3089d40f3491de794fbb1eca109fac36f889d0",
        "to": "0xc150cbd1a99036989debcfbfe820829197ba04aa",
        "gas": "0x380f0",
        "value": "0x0",
        "data": "0xdf43232e000000000000000000000000000000000000000000000000016345785d8a0000000000000000000000000000000000000000000000000000016345785d8a00640000000000000000000000000000000000000000000000000000000000002710000000000000000000000000000000000000000000000000000000174876e800000000000000000000000000000000000000000000000000000000174876e800000000000000000000000000000000000000000000000000000000000000000a",
        "nonce": "0x589"
      },
      "additionalContracts": [],
      "isFixedGasLimit": false
    }
  ],
  "receipts": [
    {
      "transactionHash": "0x732a2b37a3ae1554f04ca92ad75268ac201b578579e537c0952d87d75cdec0a6",
      "transactionIndex": "0x2a",
      "blockHash": "0xa472869146d1b131a9f0a125824b34da0272c8ee9c4632cbacad087ad8914b45",
      "blockNumber": "0x2895680",
      "from": "0xDe3089d40F3491De794fBb1ECA109fAc36F889d0",
      "to": null,
      "cumulativeGasUsed": "0x5eb69e",
      "gasUsed": "0xb09e7",
      "contractAddress": "0xC150cBD1a99036989deBCFBFE820829197bA04aA",
      "logs": [
        {
          "address": "0x0000000000000000000000000000000000001010",
          "topics": [
            "0x4dfe1bbbcf077ddc3e01291eea2d5c70c2b422b415d95645b9adcfd678cb1d63",
            "0x0000000000000000000000000000000000000000000000000000000000001010",
            "0x000000000000000000000000de3089d40f3491de794fbb1eca109fac36f889d0",
            "0x000000000000000000000000c26880a0af2ea0c7e8130e6ec47af756465452e8"
          ],
          "data": "0x0000000000000000000000000000000000000000000000000003daef5ba969000000000000000000000000000000000000000000000000002bb0617262f94f270000000000000000000000000000000000000000000022a184a46c4393685c940000000000000000000000000000000000000000000000002bac8683074fe6270000000000000000000000000000000000000000000022a184a84732ef11c594",
          "blockHash": "0xa472869146d1b131a9f0a125824b34da0272c8ee9c4632cbacad087ad8914b45",
          "blockNumber": "0x2895680",
          "transactionHash": "0x732a2b37a3ae1554f04ca92ad75268ac201b578579e537c0952d87d75cdec0a6",
          "transactionIndex": "0x2a",
          "logIndex": "0x8a",
          "removed": false
        }
      ],
      "status": "0x1",
      "logsBloom": "0x00000000000000020000000000000000000000000000000000000000000000000000000000000000000000000000000000008000100000000000000000000040000000000000000000000000000000800000000000000000000100000000000000000000000000000000000000000000000000000000000080000000000000000000000000000000000000000000000000000000001000000000000000000000200000000000000020000000000000000001000000000000000000000000004000000000000000000001000000000000000000000000000000100000000000000000000000000000000000000000000000000000000000000000000000100000",
      "type": "0x0",
      "effectiveGasPrice": "0x59682f0f"
    },
    {
      "transactionHash": "0x48d676cc16fd1581ebbbc5d44acdef00d40e4a9d25fed22cfe4a352fe5851425",
      "transactionIndex": "0x2b",
      "blockHash": "0xa472869146d1b131a9f0a125824b34da0272c8ee9c4632cbacad087ad8914b45",
      "blockNumber": "0x2895680",
      "from": "0xDe3089d40F3491De794fBb1ECA109fAc36F889d0",
      "to": "0xC150cBD1a99036989deBCFBFE820829197bA04aA",
      "cumulativeGasUsed": "0x60143c",
      "gasUsed": "0x15d9e",
      "contractAddress": null,
      "logs": [
        {
          "address": "0x0000000000000000000000000000000000001010",
          "topics": [
            "0x4dfe1bbbcf077ddc3e01291eea2d5c70c2b422b415d95645b9adcfd678cb1d63",
            "0x0000000000000000000000000000000000000000000000000000000000001010",
            "0x000000000000000000000000de3089d40f3491de794fbb1eca109fac36f889d0",
            "0x000000000000000000000000c26880a0af2ea0c7e8130e6ec47af756465452e8"
          ],
          "data": "0x00000000000000000000000000000000000000000000000000007a1a366002000000000000000000000000000000000000000000000000002bac868306aa519e0000000000000000000000000000000000000000000022a184a84732ef11c5940000000000000000000000000000000000000000000000002bac0c68d04a4f9e0000000000000000000000000000000000000000000022a184a8c14d2571c794",
          "blockHash": "0xa472869146d1b131a9f0a125824b34da0272c8ee9c4632cbacad087ad8914b45",
          "blockNumber": "0x2895680",
          "transactionHash": "0x48d676cc16fd1581ebbbc5d44acdef00d40e4a9d25fed22cfe4a352fe5851425",
          "transactionIndex": "0x2b",
          "logIndex": "0x8b",
          "removed": false
        }
      ],
      "status": "0x1",
      "logsBloom": "0x00000000000000020000000000000000000000000000000000000000000000000000000000000000000000000000000000008000100000000000000000000040000000000000000000000000000000800000000000000000000100000000000000000000000000000000000000000000000000000000000080000000000000000000000000000000000000000000000000000000001000000000000000000000200000000000000020000000000000000001000000000000000000000000004000000000000000000001000000000000000000000000000000100000000000000000000000000000000000000000000000000000000000000000000000100000",
      "type": "0x0",
      "effectiveGasPrice": "0x59682f0f"
    },
    {
      "transactionHash": "0xdfa2f79daa56849d0a9631a40da79f3a9d594be280362ecc59fe3e400029749a",
      "transactionIndex": "0x2c",
      "blockHash": "0xa472869146d1b131a9f0a125824b34da0272c8ee9c4632cbacad087ad8914b45",
      "blockNumber": "0x2895680",
      "from": "0xDe3089d40F3491De794fBb1ECA109fAc36F889d0",
      "to": "0x326C977E6efc84E512bB9C30f76E30c160eD06FB",
      "cumulativeGasUsed": "0x60de9a",
      "gasUsed": "0xca5e",
      "contractAddress": null,
      "logs": [
        {
          "address": "0x326C977E6efc84E512bB9C30f76E30c160eD06FB",
          "topics": [
            "0xddf252ad1be2c89b69c2b068fc378daa952ba7f163c4a11628f55a4df523b3ef",
            "0x000000000000000000000000de3089d40f3491de794fbb1eca109fac36f889d0",
            "0x000000000000000000000000c150cbd1a99036989debcfbfe820829197ba04aa"
          ],
          "data": "0x0000000000000000000000000000000000000000000000001bc16d674ec80000",
          "blockHash": "0xa472869146d1b131a9f0a125824b34da0272c8ee9c4632cbacad087ad8914b45",
          "blockNumber": "0x2895680",
          "transactionHash": "0xdfa2f79daa56849d0a9631a40da79f3a9d594be280362ecc59fe3e400029749a",
          "transactionIndex": "0x2c",
          "logIndex": "0x8c",
          "removed": false
        },
        {
          "address": "0x0000000000000000000000000000000000001010",
          "topics": [
            "0x4dfe1bbbcf077ddc3e01291eea2d5c70c2b422b415d95645b9adcfd678cb1d63",
            "0x0000000000000000000000000000000000000000000000000000000000001010",
            "0x000000000000000000000000de3089d40f3491de794fbb1eca109fac36f889d0",
            "0x000000000000000000000000c26880a0af2ea0c7e8130e6ec47af756465452e8"
          ],
          "data": "0x000000000000000000000000000000000000000000000000000046ad095742000000000000000000000000000000000000000000000000002bac0c68d035d35c0000000000000000000000000000000000000000000022a184a8c14d2571c7940000000000000000000000000000000000000000000000002babc5bbc6de915c0000000000000000000000000000000000000000000022a184a907fa2ec90994",
          "blockHash": "0xa472869146d1b131a9f0a125824b34da0272c8ee9c4632cbacad087ad8914b45",
          "blockNumber": "0x2895680",
          "transactionHash": "0xdfa2f79daa56849d0a9631a40da79f3a9d594be280362ecc59fe3e400029749a",
          "transactionIndex": "0x2c",
          "logIndex": "0x8d",
          "removed": false
        }
      ],
      "status": "0x1",
      "logsBloom": "0x00000000000000060000000000000000000000000000000000000000000000000000000000000000010000000000000000008000100000000000000000000040000000000000000000000008000000800000000000000000000100000000000000000100000000000000000000000000000000000000000080000010000000000000000000000000000000000000000000000000001000000000400000000000200000000000000020000000000000000001000000000000000000000000004000000002000000000001000000000000000000000000000000100000000000000800000000000000001000000000000000000000000000000000000000100000",
      "type": "0x0",
      "effectiveGasPrice": "0x59682f0f"
    },
    {
      "transactionHash": "0x801edf2b514cc9eef1fd22cb92860cac25fa29548b861083b271a542b303d1eb",
      "transactionIndex": "0x1",
      "blockHash": "0x251d09a8f030bec8d40fb435016e279be3f9aecf0becdc7d688dc06289dc8b6d",
      "blockNumber": "0x2895682",
      "from": "0xDe3089d40F3491De794fBb1ECA109fAc36F889d0",
      "to": "0xC150cBD1a99036989deBCFBFE820829197bA04aA",
      "cumulativeGasUsed": "0x3ccb4",
      "gasUsed": "0x2895f",
      "contractAddress": null,
      "logs": [
        {
          "address": "0x326C977E6efc84E512bB9C30f76E30c160eD06FB",
          "topics": [
            "0x8c5be1e5ebec7d5bd14f71427d1e84f3dd0314c0f7b2291e5b200ac8c7c3b925",
            "0x000000000000000000000000c150cbd1a99036989debcfbfe820829197ba04aa",
            "0x00000000000000000000000070499c328e1e2a3c41108bd3730f6670a44595d1"
          ],
          "data": "0x00000000000000000000000000000000000000000000000001ec03e6eee201c4",
          "blockHash": "0x251d09a8f030bec8d40fb435016e279be3f9aecf0becdc7d688dc06289dc8b6d",
          "blockNumber": "0x2895682",
          "transactionHash": "0x801edf2b514cc9eef1fd22cb92860cac25fa29548b861083b271a542b303d1eb",
          "transactionIndex": "0x1",
          "logIndex": "0x3",
          "removed": false
        },
        {
          "address": "0x326C977E6efc84E512bB9C30f76E30c160eD06FB",
          "topics": [
            "0xddf252ad1be2c89b69c2b068fc378daa952ba7f163c4a11628f55a4df523b3ef",
            "0x000000000000000000000000c150cbd1a99036989debcfbfe820829197ba04aa",
            "0x000000000000000000000000303a67f29ebd2a42b0afea3e63d7dfdd882b8ab4"
          ],
          "data": "0x00000000000000000000000000000000000000000000000001ec03e6eee201c4",
          "blockHash": "0x251d09a8f030bec8d40fb435016e279be3f9aecf0becdc7d688dc06289dc8b6d",
          "blockNumber": "0x2895682",
          "transactionHash": "0x801edf2b514cc9eef1fd22cb92860cac25fa29548b861083b271a542b303d1eb",
          "transactionIndex": "0x1",
          "logIndex": "0x4",
          "removed": false
        },
        {
          "address": "0x303a67f29Ebd2A42b0afEa3E63D7DFDd882b8Ab4",
          "topics": [
            "0xaffc45517195d6499808c643bd4a7b0ffeedf95bea5852840d7bfcf63f59e821"
          ],
          "data": "0x0000000000000000000000000000000000000000000000000000000000000020000000000000000000000000000000000000000000000000adecc60412ce25a500000000000000000000000000000000000000000000000000000000000006a400000000000000000000000000000000000000000000000001ec03e6eee201c4000000000000000000000000c150cbd1a99036989debcfbfe820829197ba04aa0000000000000000000000000000000000000000000000000000000000000001000000000000000000000000000000000000000000000000000000000007a12000000000000000000000000000000000000000000000000000000000000000000000000000000000000000006ed3783fda9ab2ca991ab6a99e574784874a767800000000000000000000000000000000000000000000000000000000000001800000000000000000000000000000000000000000000000000000000000000300000000000000000000000000326c977e6efc84e512bb9c30f76e30c160ed06fba048584bbcde99166a8263b3a522e74b32a4ae7386cd3241b51eeb17fae681d3000000000000000000000000000000000000000000000000000000000000016000000000000000000000000000000000000000000000000000000000000000200000000000000000000000000000000000000000000000000000000000000000000000000000000000000000000000000000000000000000000000000000004000000000000000000000000000000000000000000000000000000000000000e0000000000000000000000000de3089d40f3491de794fbb1eca109fac36f889d0000000000000000000000000000000000000000000000000016345785d8a0000000000000000000000000000000000000000000000000000016345785d8a00640000000000000000000000000000000000000000000000000000000000002710000000000000000000000000000000000000000000000000000000174876e800000000000000000000000000000000000000000000000000000000174876e800000000000000000000000000000000000000000000000000000000000000000a0000000000000000000000000000000000000000000000000000000000000000",
          "blockHash": "0x251d09a8f030bec8d40fb435016e279be3f9aecf0becdc7d688dc06289dc8b6d",
          "blockNumber": "0x2895682",
          "transactionHash": "0x801edf2b514cc9eef1fd22cb92860cac25fa29548b861083b271a542b303d1eb",
          "transactionIndex": "0x1",
          "logIndex": "0x5",
          "removed": false
        },
        {
          "address": "0xC150cBD1a99036989deBCFBFE820829197bA04aA",
          "topics": [
            "0x9fb548811cfe022ba6400d8533a80d63fbc228e596f93603959dc47b1886af54",
            "0xa048584bbcde99166a8263b3a522e74b32a4ae7386cd3241b51eeb17fae681d3",
            "0x00000000000000000000000000000000000000000000000024f9b897ef58a922"
          ],
          "data": "0x0000000000000000000000006ed3783fda9ab2ca991ab6a99e574784874a7678000000000000000000000000326c977e6efc84e512bb9c30f76e30c160ed06fb00000000000000000000000000000000000000000000000001ec03e6eee201c4",
          "blockHash": "0x251d09a8f030bec8d40fb435016e279be3f9aecf0becdc7d688dc06289dc8b6d",
          "blockNumber": "0x2895682",
          "transactionHash": "0x801edf2b514cc9eef1fd22cb92860cac25fa29548b861083b271a542b303d1eb",
          "transactionIndex": "0x1",
          "logIndex": "0x6",
          "removed": false
        },
        {
          "address": "0x0000000000000000000000000000000000001010",
          "topics": [
            "0x4dfe1bbbcf077ddc3e01291eea2d5c70c2b422b415d95645b9adcfd678cb1d63",
            "0x0000000000000000000000000000000000000000000000000000000000001010",
            "0x000000000000000000000000de3089d40f3491de794fbb1eca109fac36f889d0",
            "0x000000000000000000000000c26880a0af2ea0c7e8130e6ec47af756465452e8"
          ],
          "data": "0x0000000000000000000000000000000000000000000000000000e2ca4cd071000000000000000000000000000000000000000000000000002babc5bbc6d2b5da0000000000000000000000000000000000000000000022a184d68e07736d3d930000000000000000000000000000000000000000000000002baae2f17a0244da0000000000000000000000000000000000000000000022a184d770d1c03dae93",
          "blockHash": "0x251d09a8f030bec8d40fb435016e279be3f9aecf0becdc7d688dc06289dc8b6d",
          "blockNumber": "0x2895682",
          "transactionHash": "0x801edf2b514cc9eef1fd22cb92860cac25fa29548b861083b271a542b303d1eb",
          "transactionIndex": "0x1",
          "logIndex": "0x7",
          "removed": false
        }
      ],
      "status": "0x1",
      "logsBloom": "0x00000100000000060000000000000000000000000000000000000000008000000002800000000000010000000000020000008000100000000000000000200048000000000000000000000808000000800000040000000000000100200000000000000100000000000000000000000040000000810000000080000010000000800000000400000000000000000000000000000000101000000000400000000000220200000000000024000000000000000001000000000000000000000000004000000002000000000001000000020000000000000000000010100001002000000810080000000000001000000000040100000000000000000000000000100000",
      "type": "0x0",
      "effectiveGasPrice": "0x59682f0f"
    }
  ],
  "libraries": [],
  "pending": [],
  "returns": {},
  "timestamp": 1700323687,
  "chain": 80001,
  "multi": false,
  "commit": "ecbf677"
}