{
  "transactions": [
    {
      "hash": "0x4c70a1db19638cde0af6d646e97bc8862de1b27074e7c46d8490f5d4b32f3320",
      "transactionType": "CREATE",
      "contractName": "FootyDAOAdapter",
      "contractAddress": "0x462059E5E48F6D41F0746843EA3d9066e136e539",
      "function": null,
      "arguments": null,
      "transaction": {
        "type": "0x00",
        "from": "0xde3089d40f3491de794fbb1eca109fac36f889d0",
        "gas": "0xed53d",
        "value": "0x0",
        "data": "0x608060405234801561001057600080fd5b50610c91806100206000396000f3fe6080604052600436106100915760003560e01c8063aff3ae2911610059578063aff3ae29146101f6578063b430bb481461021d578063d6a0d8f314610232578063df43232e14610245578063e16e632c1461026557600080fd5b80630a9e6a70146100965780635d42ac40146100b85780636ef0214c146101045780637725135b14610143578063971cb8fb1461017b575b600080fd5b3480156100a257600080fd5b506100b66100b13660046108cb565b610285565b005b3480156100c457600080fd5b506100b66100d3366004610966565b600080546001600160a01b03909216600160401b0268010000000000000000600160e01b0319909216919091179055565b34801561011057600080fd5b506000546101259067ffffffffffffffff1681565b60405167ffffffffffffffff90911681526020015b60405180910390f35b34801561014f57600080fd5b50600254610163906001600160a01b031681565b6040516001600160a01b03909116815260200161013a565b34801561018757600080fd5b506100b6610196366004610988565b600080546001600160a01b03948516600160401b026001600160e01b031990911667ffffffffffffffff9096169590951794909417909355600180549183166001600160a01b031992831617905560028054939092169216919091179055565b34801561020257600080fd5b5060005461016390600160401b90046001600160a01b031681565b34801561022957600080fd5b506100b66102f2565b6100b66102403660046109eb565b6103da565b34801561025157600080fd5b506100b6610260366004610a04565b610447565b34801561027157600080fd5b50600154610163906001600160a01b031681565b604080518082019091526000908060048152602001858585336040516020016102b19493929190610a47565b60408051601f198184030181529181529152516102d19190602001610af9565b60405160208183030381529060405290506102eb816104d7565b5050505050565b6002546040516370a0823160e01b81523060048201526001600160a01b039091169063a9059cbb90339083906370a0823190602401602060405180830381865afa158015610344573d6000803e3d6000fd5b505050506040513d601f19601f820116820180604052508101906103689190610b46565b6040516001600160e01b031960e085901b1681526001600160a01b03909216600483015260248201526044016020604051808303816000875af11580156103b3573d6000803e3d6000fd5b505050506040513d601f19601f820116820180604052508101906103d79190610b5f565b50565b6040805180820182526001815281516020808201859052339382019390935234606082015260009282019060800160408051601f198184030181529181529152516104289190602001610af9565b6040516020818303038152906040529050610442816104d7565b505050565b60408051808201825260008082528251336020808301919091529381018a9052606081018990526080810188905260a0810187905260c0810186905260e0810185905290928201906101000160408051601f198184030181529181529152516104b39190602001610af9565b60405160208183030381529060405290506104cd816104d7565b5050505050505050565b6040805160a0810190915260008054600160401b90046001600160a01b031660c08301529081908060e0810160408051808303601f19018152918152908252602080830187905281516000808252918101835292909101919061055c565b60408051808201909152600080825260208201528152602001906001900390816105355790505b5081526002546001600160a01b03166020808301919091526040805180820182526207a12080825260009184019182528251602481019190915290511515604480830191909152825180830390910181526064909101825291820180516001600160e01b03166397a657c960e01b17905290910152600154600080546040516320487ded60e01b815293945090926001600160a01b03909216916320487ded916106179167ffffffffffffffff909116908690600401610b81565b602060405180830381865afa158015610634573d6000803e3d6000fd5b505050506040513d601f19601f820116820180604052508101906106589190610b46565b6002546040516370a0823160e01b81523060048201529192506001600160a01b0316906370a0823190602401602060405180830381865afa1580156106a1573d6000803e3d6000fd5b505050506040513d601f19601f820116820180604052508101906106c59190610b46565b811115610760576002546040516370a0823160e01b81523060048201526001600160a01b03909116906370a0823190602401602060405180830381865afa158015610714573d6000803e3d6000fd5b505050506040513d601f19601f820116820180604052508101906107389190610b46565b604051634787a10360e11b815260048101919091526024810182905260440160405180910390fd5b60025460015460405163095ea7b360e01b81526001600160a01b0391821660048201526024810184905291169063095ea7b3906044016020604051808303816000875af11580156107b5573d6000803e3d6000fd5b505050506040513d601f19601f820116820180604052508101906107d99190610b5f565b506001546000546040516396f4e9f960e01b81526001600160a01b03909216916396f4e9f99161081a9167ffffffffffffffff909116908690600401610b81565b6020604051808303816000875af1158015610839573d6000803e3d6000fd5b505050506040513d601f19601f8201168201806040525081019061085d9190610b46565b600054600254604080516001600160a01b03600160401b8504811682529092166020830152810184905291945067ffffffffffffffff169084907f9fb548811cfe022ba6400d8533a80d63fbc228e596f93603959dc47b1886af549060600160405180910390a35050919050565b6000806000604084860312156108e057600080fd5b83359250602084013567ffffffffffffffff808211156108ff57600080fd5b818601915086601f83011261091357600080fd5b81358181111561092257600080fd5b8760208260051b850101111561093757600080fd5b6020830194508093505050509250925092565b80356001600160a01b038116811461096157600080fd5b919050565b60006020828403121561097857600080fd5b6109818261094a565b9392505050565b6000806000806080858703121561099e57600080fd5b843567ffffffffffffffff811681146109b657600080fd5b93506109c46020860161094a565b92506109d26040860161094a565b91506109e06060860161094a565b905092959194509250565b6000602082840312156109fd57600080fd5b5035919050565b60008060008060008060c08789031215610a1d57600080fd5b505084359660208601359650604086013595606081013595506080810135945060a0013592509050565b84815260606020808301829052908201849052600090859060808401835b87811015610a91576001600160a01b03610a7e8561094a565b1682529282019290820190600101610a65565b506001600160a01b039590951660409490940193909352509195945050505050565b6000815180845260005b81811015610ad957602081850181015186830182015201610abd565b506000602082860101526020601f19601f83011685010191505092915050565b602081526000825160088110610b1f57634e487b7160e01b600052602160045260246000fd5b806020840152506020830151604080840152610b3e6060840182610ab3565b949350505050565b600060208284031215610b5857600080fd5b5051919050565b600060208284031215610b7157600080fd5b8151801515811461098157600080fd5b6000604067ffffffffffffffff8516835260208181850152845160a083860152610bae60e0860182610ab3565b905081860151603f1980878403016060880152610bcb8383610ab3565b88860151888203830160808a01528051808352908601945060009350908501905b80841015610c1e57845180516001600160a01b0316835286015186830152938501936001939093019290860190610bec565b5060608901516001600160a01b031660a08901526080890151888203830160c08a01529550610c4d8187610ab3565b9a995050505050505050505056fea2646970667358221220f3621336ac65b099105c6428aa67b95a2829fa2545309be1ba71c1c16659a27764736f6c63430008150033",
        "nonce": "0x58a"
      },
      "additionalContracts": [],
      "isFixedGasLimit": false
    },
    {
      "hash": "0x520db11bc41f8b765c22579efba84a62ad5f9b6a1d71b670ac3d4b37a333a917",
      "transactionType": "CALL",
      "contractName": "FootyDAOAdapter",
      "contractAddress": "0x462059E5E48F6D41F0746843EA3d9066e136e539",
      "function": "initialize(uint64,address,address,address)",
      "arguments": [
        "2664363617261496610",
        "0x52E058E5CD5D9a25117bCe2c467c521667b345b1",
        "0x70499c328e1E2a3c41108bd3730F6670a44595D1",
        "0x326C977E6efc84E512bB9C30f76E30c160eD06FB"
      ],
      "transaction": {
        "type": "0x00",
        "from": "0xde3089d40f3491de794fbb1eca109fac36f889d0",
        "to": "0x462059e5e48f6d41f0746843ea3d9066e136e539",
        "gas": "0x1e306",
        "value": "0x0",
        "data": "0x971cb8fb00000000000000000000000000000000000000000000000024f9b897ef58a92200000000000000000000000052e058e5cd5d9a25117bce2c467c521667b345b100000000000000000000000070499c328e1e2a3c41108bd3730f6670a44595d1000000000000000000000000326c977e6efc84e512bb9c30f76e30c160ed06fb",
        "nonce": "0x58b"
      },
      "additionalContracts": [],
      "isFixedGasLimit": false
    },
    {
      "hash": "0x89d91dca9c194d8f472470e409fb32cb44470abb5970b86b23521767f9ef74ed",
      "transactionType": "CALL",
      "contractName": "LinkToken",
      "contractAddress": "0x326C977E6efc84E512bB9C30f76E30c160eD06FB",
      "function": "transfer(address,uint256)",
      "arguments": [
        "0x462059E5E48F6D41F0746843EA3d9066e136e539",
        "2000000000000000000"
      ],
      "transaction": {
        "type": "0x00",
        "from": "0xde3089d40f3491de794fbb1eca109fac36f889d0",
        "to": "0x326c977e6efc84e512bb9c30f76e30c160ed06fb",
        "gas": "0xfd9d",
        "value": "0x0",
        "data": "0xa9059cbb000000000000000000000000462059e5e48f6d41f0746843ea3d9066e136e5390000000000000000000000000000000000000000000000001bc16d674ec80000",
        "nonce": "0x58c"
      },
      "additionalContracts": [],
      "isFixedGasLimit": false
    },
    {
      "hash": "0xdae64be63f95cd263d5e0b7194a6ad7fd4fc26ff8b2a48941c685661fb383329",
      "transactionType": "CALL",
      "contractName": "FootyDAOAdapter",
      "contractAddress": "0x462059E5E48F6D41F0746843EA3d9066e136e539",
      "function": "createSportEvent(uint256,uint256,uint256,uint256,uint256,uint256)",
      "arguments": [
        "100000000000000000",
        "100000000000000100",
        "10000",
        "100000000000",
        "100000000000",
        "10"
      ],
      "transaction": {
        "type": "0x00",
        "from": "0xde3089d40f3491de794fbb1eca109fac36f889d0",
        "to": "0x462059e5e48f6d41f0746843ea3d9066e136e539",
        "gas": "0x380f0",
        "value": "0x0",
        "data": "0xdf43232e000000000000000000000000000000000000000000000000016345785d8a0000000000000000000000000000000000000000000000000000016345785d8a00640000000000000000000000000000000000000000000000000000000000002710000000000000000000000000000000000000000000000000000000174876e800000000000000000000000000000000000000000000000000000000174876e800000000000000000000000000000000000000000000000000000000000000000a",
        "nonce": "0x58d"
      },
      "additionalContracts": [],
      "isFixedGasLimit": false
    }
  ],
  "receipts": [
    {
      "transactionHash": "0x4c70a1db19638cde0af6d646e97bc8862de1b27074e7c46d8490f5d4b32f3320",
      "transactionIndex": "0x4",
      "blockHash": "0x056fabd4f50c4bf71432f3f6493376bd9ff43474116693c5cb6bb03e94cfc39f",
      "blockNumber": "0x289701d",
      "from": "0xDe3089d40F3491De794fBb1ECA109fAc36F889d0",
      "to": null,
      "cumulativeGasUsed": "0xf1fef",
      "gasUsed": "0xb69c0",
      "contractAddress": "0x462059E5E48F6D41F0746843EA3d9066e136e539",
      "logs": [
        {
          "address": "0x0000000000000000000000000000000000001010",
          "topics": [
            "0x4dfe1bbbcf077ddc3e01291eea2d5c70c2b422b415d95645b9adcfd678cb1d63",
            "0x0000000000000000000000000000000000000000000000000000000000001010",
            "0x000000000000000000000000de3089d40f3491de794fbb1eca109fac36f889d0",
            "0x000000000000000000000000c275dc8be39f50d12f66b6a63629c39da5bae5bd"
          ],
          "data": "0x0000000000000000000000000000000000000000000000000006a4aead5bc0000000000000000000000000000000000000000000000000002baae2f179dc38490000000000000000000000000000000000000000000013768ff113068e350dac0000000000000000000000000000000000000000000000002ba43e42cc8078490000000000000000000000000000000000000000000013768ff7b7b53b90cdac",
          "blockHash": "0x056fabd4f50c4bf71432f3f6493376bd9ff43474116693c5cb6bb03e94cfc39f",
          "blockNumber": "0x289701d",
          "transactionHash": "0x4c70a1db19638cde0af6d646e97bc8862de1b27074e7c46d8490f5d4b32f3320",
          "transactionIndex": "0x4",
          "logIndex": "0xd",
          "removed": false
        }
      ],
      "status": "0x1",
      "logsBloom": "0x00000000000000000000000000000000000000000000000000000000000000000000000000000000000000000000000000008000102000000000000000000040000000000000000000000000000000800000000000000000040100000000000000000000000000000000000000000000000000000000000080000000000000000000000000000000000000000000000000000000001000000000000000000000200000000000000000000000000000000000000000000000000040000000004000000000000000000001000000000000000000000000000000100000000000000000000000000000000000000000000000000000000000000000000000100000",
      "type": "0x0",
      "effectiveGasPrice": "0x9502f90f"
    },
    {
      "transactionHash": "0x520db11bc41f8b765c22579efba84a62ad5f9b6a1d71b670ac3d4b37a333a917",
      "transactionIndex": "0x5",
      "blockHash": "0x056fabd4f50c4bf71432f3f6493376bd9ff43474116693c5cb6bb03e94cfc39f",
      "blockNumber": "0x289701d",
      "from": "0xDe3089d40F3491De794fBb1ECA109fAc36F889d0",
      "to": "0x462059E5E48F6D41F0746843EA3d9066e136e539",
      "cumulativeGasUsed": "0x107da3",
      "gasUsed": "0x15db4",
      "contractAddress": null,
      "logs": [
        {
          "address": "0x0000000000000000000000000000000000001010",
          "topics": [
            "0x4dfe1bbbcf077ddc3e01291eea2d5c70c2b422b415d95645b9adcfd678cb1d63",
            "0x0000000000000000000000000000000000000000000000000000000000001010",
            "0x000000000000000000000000de3089d40f3491de794fbb1eca109fac36f889d0",
            "0x000000000000000000000000c275dc8be39f50d12f66b6a63629c39da5bae5bd"
          ],
          "data": "0x0000000000000000000000000000000000000000000000000000cb8dd38c14000000000000000000000000000000000000000000000000002ba43e42cbd546090000000000000000000000000000000000000000000013768ff7b7b53b90cdac0000000000000000000000000000000000000000000000002ba372b4f84932090000000000000000000000000000000000000000000013768ff883430f1ce1ac",
          "blockHash": "0x056fabd4f50c4bf71432f3f6493376bd9ff43474116693c5cb6bb03e94cfc39f",
          "blockNumber": "0x289701d",
          "transactionHash": "0x520db11bc41f8b765c22579efba84a62ad5f9b6a1d71b670ac3d4b37a333a917",
          "transactionIndex": "0x5",
          "logIndex": "0xe",
          "removed": false
        }
      ],
      "status": "0x1",
      "logsBloom": "0x00000000000000000000000000000000000000000000000000000000000000000000000000000000000000000000000000008000102000000000000000000040000000000000000000000000000000800000000000000000040100000000000000000000000000000000000000000000000000000000000080000000000000000000000000000000000000000000000000000000001000000000000000000000200000000000000000000000000000000000000000000000000040000000004000000000000000000001000000000000000000000000000000100000000000000000000000000000000000000000000000000000000000000000000000100000",
      "type": "0x0",
      "effectiveGasPrice": "0x9502f90f"
    },
    {
      "transactionHash": "0x89d91dca9c194d8f472470e409fb32cb44470abb5970b86b23521767f9ef74ed",
      "transactionIndex": "0x3",
      "blockHash": "0xaecf0fbc6e4cbb8da00936f2d892d31ae4e7355201a2b16b9f2804e35a809fe2",
      "blockNumber": "0x289701f",
      "from": "0xDe3089d40F3491De794fBb1ECA109fAc36F889d0",
      "to": "0x326C977E6efc84E512bB9C30f76E30c160eD06FB",
      "cumulativeGasUsed": "0x5fa2c",
      "gasUsed": "0xb79e",
      "contractAddress": null,
      "logs": [
        {
          "address": "0x326C977E6efc84E512bB9C30f76E30c160eD06FB",
          "topics": [
            "0xddf252ad1be2c89b69c2b068fc378daa952ba7f163c4a11628f55a4df523b3ef",
            "0x000000000000000000000000de3089d40f3491de794fbb1eca109fac36f889d0",
            "0x000000000000000000000000462059e5e48f6d41f0746843ea3d9066e136e539"
          ],
          "data": "0x0000000000000000000000000000000000000000000000001bc16d674ec80000",
          "blockHash": "0xaecf0fbc6e4cbb8da00936f2d892d31ae4e7355201a2b16b9f2804e35a809fe2",
          "blockNumber": "0x289701f",
          "transactionHash": "0x89d91dca9c194d8f472470e409fb32cb44470abb5970b86b23521767f9ef74ed",
          "transactionIndex": "0x3",
          "logIndex": "0x9",
          "removed": false
        },
        {
          "address": "0x0000000000000000000000000000000000001010",
          "topics": [
            "0x4dfe1bbbcf077ddc3e01291eea2d5c70c2b422b415d95645b9adcfd678cb1d63",
            "0x0000000000000000000000000000000000000000000000000000000000001010",
            "0x000000000000000000000000de3089d40f3491de794fbb1eca109fac36f889d0",
            "0x000000000000000000000000c275dc8be39f50d12f66b6a63629c39da5bae5bd"
          ],
          "data": "0x00000000000000000000000000000000000000000000000000006ae117d4ae000000000000000000000000000000000000000000000000002ba372b4f834b47d00000000000000000000000000000000000000000000137690007ab4c4afa0f00000000000000000000000000000000000000000000000002ba307d3e060067d0000000000000000000000000000000000000000000013769000e595dc844ef0",
          "blockHash": "0xaecf0fbc6e4cbb8da00936f2d892d31ae4e7355201a2b16b9f2804e35a809fe2",
          "blockNumber": "0x289701f",
          "transactionHash": "0x89d91dca9c194d8f472470e409fb32cb44470abb5970b86b23521767f9ef74ed",
          "transactionIndex": "0x3",
          "logIndex": "0xa",
          "removed": false
        }
      ],
      "status": "0x1",
      "logsBloom": "0x00000000000000040000000000000000000000000000000000000000000000000000000000000000000000000000000000008000102000000000000000000040000000000000000000000008000000800000000000000002040100000000000000000000000000000000000000000000000000000000000080000010000000000000000000000000000000000000000001000000001000000000000000000000200020000000000000000000000000000000000000000000000040000000004000000002000000000001000000000000000000000000000000100000000000000800000000000000001000000000000000000000000000000000000000100000",
      "type": "0x0",
      "effectiveGasPrice": "0x9502f90f"
    },
    {
      "transactionHash": "0xdae64be63f95cd263d5e0b7194a6ad7fd4fc26ff8b2a48941c685661fb383329",
      "transactionIndex": "0xb",
      "blockHash": "0x1425143123ebd7a66067bfe482882eb76397a2146b5c889e6f17ad41267ac55f",
      "blockNumber": "0x2897021",
      "from": "0xDe3089d40F3491De794fBb1ECA109fAc36F889d0",
      "to": "0x462059E5E48F6D41F0746843EA3d9066e136e539",
      "cumulativeGasUsed": "0x1dda98",
      "gasUsed": "0x2895f",
      "contractAddress": null,
      "logs": [
        {
          "address": "0x326C977E6efc84E512bB9C30f76E30c160eD06FB",
          "topics": [
            "0x8c5be1e5ebec7d5bd14f71427d1e84f3dd0314c0f7b2291e5b200ac8c7c3b925",
            "0x000000000000000000000000462059e5e48f6d41f0746843ea3d9066e136e539",
            "0x00000000000000000000000070499c328e1e2a3c41108bd3730f6670a44595d1"
          ],
          "data": "0x00000000000000000000000000000000000000000000000001ec03e6eee201c4",
          "blockHash": "0x1425143123ebd7a66067bfe482882eb76397a2146b5c889e6f17ad41267ac55f",
          "blockNumber": "0x2897021",
          "transactionHash": "0xdae64be63f95cd263d5e0b7194a6ad7fd4fc26ff8b2a48941c685661fb383329",
          "transactionIndex": "0xb",
          "logIndex": "0x1e",
          "removed": false
        },
        {
          "address": "0x326C977E6efc84E512bB9C30f76E30c160eD06FB",
          "topics": [
            "0xddf252ad1be2c89b69c2b068fc378daa952ba7f163c4a11628f55a4df523b3ef",
            "0x000000000000000000000000462059e5e48f6d41f0746843ea3d9066e136e539",
            "0x000000000000000000000000303a67f29ebd2a42b0afea3e63d7dfdd882b8ab4"
          ],
          "data": "0x00000000000000000000000000000000000000000000000001ec03e6eee201c4",
          "blockHash": "0x1425143123ebd7a66067bfe482882eb76397a2146b5c889e6f17ad41267ac55f",
          "blockNumber": "0x2897021",
          "transactionHash": "0xdae64be63f95cd263d5e0b7194a6ad7fd4fc26ff8b2a48941c685661fb383329",
          "transactionIndex": "0xb",
          "logIndex": "0x1f",
          "removed": false
        },
        {
          "address": "0x303a67f29Ebd2A42b0afEa3E63D7DFDd882b8Ab4",
          "topics": [
            "0xaffc45517195d6499808c643bd4a7b0ffeedf95bea5852840d7bfcf63f59e821"
          ],
          "data": "0x0000000000000000000000000000000000000000000000000000000000000020000000000000000000000000000000000000000000000000adecc60412ce25a500000000000000000000000000000000000000000000000000000000000006a500000000000000000000000000000000000000000000000001ec03e6eee201c4000000000000000000000000462059e5e48f6d41f0746843ea3d9066e136e5390000000000000000000000000000000000000000000000000000000000000001000000000000000000000000000000000000000000000000000000000007a120000000000000000000000000000000000000000000000000000000000000000000000000000000000000000052e058e5cd5d9a25117bce2c467c521667b345b100000000000000000000000000000000000000000000000000000000000001800000000000000000000000000000000000000000000000000000000000000300000000000000000000000000326c977e6efc84e512bb9c30f76e30c160ed06fb8bd93ba5574a3dc3dbce2b6f729d19debc4cccb392ab7dbf3ba368f73b01b000000000000000000000000000000000000000000000000000000000000000016000000000000000000000000000000000000000000000000000000000000000200000000000000000000000000000000000000000000000000000000000000000000000000000000000000000000000000000000000000000000000000000004000000000000000000000000000000000000000000000000000000000000000e0000000000000000000000000de3089d40f3491de794fbb1eca109fac36f889d0000000000000000000000000000000000000000000000000016345785d8a0000000000000000000000000000000000000000000000000000016345785d8a00640000000000000000000000000000000000000000000000000000000000002710000000000000000000000000000000000000000000000000000000174876e800000000000000000000000000000000000000000000000000000000174876e800000000000000000000000000000000000000000000000000000000000000000a0000000000000000000000000000000000000000000000000000000000000000",
          "blockHash": "0x1425143123ebd7a66067bfe482882eb76397a2146b5c889e6f17ad41267ac55f",
          "blockNumber": "0x2897021",
          "transactionHash": "0xdae64be63f95cd263d5e0b7194a6ad7fd4fc26ff8b2a48941c685661fb383329",
          "transactionIndex": "0xb",
          "logIndex": "0x20",
          "removed": false
        },
        {
          "address": "0x462059E5E48F6D41F0746843EA3d9066e136e539",
          "topics": [
            "0x9fb548811cfe022ba6400d8533a80d63fbc228e596f93603959dc47b1886af54",
            "0x8bd93ba5574a3dc3dbce2b6f729d19debc4cccb392ab7dbf3ba368f73b01b000",
            "0x00000000000000000000000000000000000000000000000024f9b897ef58a922"
          ],
          "data": "0x00000000000000000000000052e058e5cd5d9a25117bce2c467c521667b345b1000000000000000000000000326c977e6efc84e512bb9c30f76e30c160ed06fb00000000000000000000000000000000000000000000000001ec03e6eee201c4",
          "blockHash": "0x1425143123ebd7a66067bfe482882eb76397a2146b5c889e6f17ad41267ac55f",
          "blockNumber": "0x2897021",
          "transactionHash": "0xdae64be63f95cd263d5e0b7194a6ad7fd4fc26ff8b2a48941c685661fb383329",
          "transactionIndex": "0xb",
          "logIndex": "0x21",
          "removed": false
        },
        {
          "address": "0x0000000000000000000000000000000000001010",
          "topics": [
            "0x4dfe1bbbcf077ddc3e01291eea2d5c70c2b422b415d95645b9adcfd678cb1d63",
            "0x0000000000000000000000000000000000000000000000000000000000001010",
            "0x000000000000000000000000de3089d40f3491de794fbb1eca109fac36f889d0",
            "0x000000000000000000000000cfef2a3dc244ef7d0fb93c45e762d671445c4569"
          ],
          "data": "0x000000000000000000000000000000000000000000000000000179fbd55b67000000000000000000000000000000000000000000000000002ba307d3e055443b0000000000000000000000000000000000000000000000aa9279872414613d4a0000000000000000000000000000000000000000000000002ba18dd80af9dd3b0000000000000000000000000000000000000000000000aa927b011fe9bca44a",
          "blockHash": "0x1425143123ebd7a66067bfe482882eb76397a2146b5c889e6f17ad41267ac55f",
          "blockNumber": "0x2897021",
          "transactionHash": "0xdae64be63f95cd263d5e0b7194a6ad7fd4fc26ff8b2a48941c685661fb383329",
          "transactionIndex": "0xb",
          "logIndex": "0x22",
          "removed": false
        }
      ],
      "status": "0x1",
      "logsBloom": "0x00000100010000040000000002000000040000000000000000000000008000000002800000000000000000000000000000008000100000000000000000200048000000000000000000000808000004800000040000000002020100200000000000000000000000000000000000000040000000810000000080000010000000000000000000000000000000000004000001000000101000000000000000000000220220000000000004000000000000000000000000000002000000000000004000000002000000100001000000000000000000000000000010100001002000000810000000000000001000000000000100000000000000000000040000100000",
      "type": "0x0",
      "effectiveGasPrice": "0x9502f90f"
    }
  ],
  "libraries": [],
  "pending": [],
  "returns": {},
  "timestamp": 1700337649,
  "chain": 80001,
  "multi": false,
  "commit": "ecbf677"
}