{
  "transactions": [
    {
      "hash": "0xe4f258428feae9f8a40d3dcf452b161a0f800c8df100d3b2b7d1263d02cdede1",
      "transactionType": "CREATE",
      "contractName": "FootyDAOFunctionsConsumer",
      "contractAddress": "0x5A83f0A6C1A378e7259FE670C26C6995E0A6524C",
      "function": null,
      "arguments": [
        "0x6E2dc0F9DB014aE19888F539E59285D2Ea04244C",
        "818"
      ],
      "transaction": {
        "type": "0x00",
        "from": "0xde3089d40f3491de794fbb1eca109fac36f889d0",
        "gas": "0x1bc700",
        "value": "0x0",
        "data": "0x60a0604052600060055534801561001557600080fd5b506040516118ba3803806118ba83398101604081905261003491610067565b6001600160a01b0391909116608052600180546001600160401b0319166001600160401b039092169190911790556100b9565b6000806040838503121561007a57600080fd5b82516001600160a01b038116811461009157600080fd5b60208401519092506001600160401b03811681146100ae57600080fd5b809150509250929050565b6080516117e06100da6000396000818160e60152610a4a01526117e06000f3fe608060405234801561001057600080fd5b50600436106100625760003560e01c80630ca76175146100675780631aa46f591461007c57806360af0b2a1461009857806361ad58ce146100ab578063bef3a2f0146100be578063fffeb84e146100d3575b600080fd5b61007a6100753660046111d1565b6100db565b005b61008560025481565b6040519081526020015b60405180910390f35b61007a6100a636600461123d565b61015f565b61007a6100b936600461128d565b61016f565b6100c661042b565b60405161008f91906113ab565b6100c66104b9565b336001600160a01b037f000000000000000000000000000000000000000000000000000000000000000016146101245760405163c6829f8360e01b815260040160405180910390fd5b61012f8383836104c6565b60405183907f85e1543bf2f84fe80c6badbce3648c8539ad1df4d2b3d822938ca0538be727e690600090a2505050565b600061016b8282611446565b5050565b6101b06040805160e0810190915280600081526020016000815260200160008152602001606081526020016060815260200160608152602001606081525090565b61024d600080546101c0906113be565b80601f01602080910402602001604051908101604052809291908181526020018280546101ec906113be565b80156102395780601f1061020e57610100808354040283529160200191610239565b820191906000526020600020905b81548152906001019060200180831161021c57829003601f168201915b50505050508261051f90919063ffffffff16565b60408051600480825260a08201909252600091816020015b606081526020019060019003908161026557505060408051602081019091526000808252919250905b865181101561033157816102c58883815181106102ad576102ad611505565b60200260200101516001600160a01b0316601461052c565b6040516020016102d692919061151b565b6040516020818303038152906040529150600187516102f59190611560565b81101561031f578160405160200161030d9190611573565b60405160208183030381529060405291505b8061032981611598565b91505061028e565b50808260008151811061034657610346611505565b602002602001018190525061035a856106b1565b8260018151811061036d5761036d611505565b6020026020010181905250610381846106b1565b8260028151811061039457610394611505565b60200260200101819052506103aa6005546106b1565b826003815181106103bd576103bd611505565b60209081029190910101526103d28383610743565b61040b6103de8461076d565b6001546001600160401b031662030d407366756e2d706f6c79676f6e2d6d756d6261692d3160601b610a45565b6002556005805490600061041e83611598565b9190505550505050505050565b60038054610438906113be565b80601f0160208091040260200160405190810160405280929190818152602001828054610464906113be565b80156104b15780601f10610486576101008083540402835291602001916104b1565b820191906000526020600020905b81548152906001019060200180831161049457829003601f168201915b505050505081565b60048054610438906113be565b60036104d28382611446565b5060046104df8282611446565b50827f7bab0ec163b5c132c72b8146ac4d6e067e82ed58f8b131150aa71c925891156283836040516105129291906115b1565b60405180910390a2505050565b61016b8260008084610b17565b606082600061053c8460026115df565b6105479060026115f6565b6001600160401b0381111561055e5761055e611114565b6040519080825280601f01601f191660200182016040528015610588576020820181803683370190505b509050600360fc1b816000815181106105a3576105a3611505565b60200101906001600160f81b031916908160001a905350600f60fb1b816001815181106105d2576105d2611505565b60200101906001600160f81b031916908160001a90535060006105f68560026115df565b6106019060016115f6565b90505b6001811115610679576f181899199a1a9b1b9c1cb0b131b232b360811b83600f166010811061063557610635611505565b1a60f81b82828151811061064b5761064b611505565b60200101906001600160f81b031916908160001a90535060049290921c9161067281611609565b9050610604565b5081156106a75760405163e22e27eb60e01b8152600481018690526024810185905260440160405180910390fd5b9150505b92915050565b606060006106be83610b95565b60010190506000816001600160401b038111156106dd576106dd611114565b6040519080825280601f01601f191660200182016040528015610707576020820181803683370190505b5090508181016020015b600019016f181899199a1a9b1b9c1cb0b131b232b360811b600a86061a8153600a850494508461071157509392505050565b80516000036107655760405163fe936cb760e01b815260040160405180910390fd5b60a090910152565b6060600061077c610100610c6d565b90506107b56040518060400160405280600c81526020016b31b7b232a637b1b0ba34b7b760a11b81525082610c8e90919063ffffffff16565b82516107d39060028111156107cc576107cc611620565b8290610cac565b6040805180820190915260088152676c616e677561676560c01b60208201526107fd908290610c8e565b60408301516108149080156107cc576107cc611620565b604080518082019091526006815265736f7572636560d01b602082015261083c908290610c8e565b606083015161084c908290610c8e565b60a083015151156108e0576040805180820190915260048152636172677360e01b602082015261087d908290610c8e565b61088681610ce5565b60005b8360a00151518110156108d6576108c68460a0015182815181106108af576108af611505565b602002602001015183610c8e90919063ffffffff16565b6108cf81611598565b9050610889565b506108e081610d09565b608083015151156109a45760008360200151600281111561090357610903611620565b036109215760405163a80d31f760e01b815260040160405180910390fd5b60408051808201909152600f81526e39b2b1b932ba39a637b1b0ba34b7b760891b6020820152610952908290610c8e565b61096b836020015160028111156107cc576107cc611620565b6040805180820190915260078152667365637265747360c81b6020820152610994908290610c8e565b60808301516109a4908290610d27565b60c08301515115610a3d5760408051808201909152600981526862797465734172677360b81b60208201526109da908290610c8e565b6109e381610ce5565b60005b8360c0015151811015610a3357610a238460c001518281518110610a0c57610a0c611505565b602002602001015183610d2790919063ffffffff16565b610a2c81611598565b90506109e6565b50610a3d81610d09565b515192915050565b6000807f00000000000000000000000000000000000000000000000000000000000000006001600160a01b031663461d27628688600188886040518663ffffffff1660e01b8152600401610a9d959493929190611636565b6020604051808303816000875af1158015610abc573d6000803e3d6000fd5b505050506040513d601f19601f82011682018060405250810190610ae0919061167f565b60405190915081907f1131472297a800fee664d1d89cfa8f7676ff07189ecc53f80bbb5f4969099db890600090a295945050505050565b8051600003610b39576040516322ce3edd60e01b815260040160405180910390fd5b83836002811115610b4c57610b4c611620565b90816002811115610b5f57610b5f611620565b90525060408401828015610b7557610b75611620565b90818015610b8557610b85611620565b9052506060909301929092525050565b60008072184f03e93ff9f4daa797ed6e38ed64bf6a1f0160401b8310610bd45772184f03e93ff9f4daa797ed6e38ed64bf6a1f0160401b830492506040015b6d04ee2d6d415b85acef81000000008310610c00576d04ee2d6d415b85acef8100000000830492506020015b662386f26fc100008310610c1e57662386f26fc10000830492506010015b6305f5e1008310610c36576305f5e100830492506008015b6127108310610c4a57612710830492506004015b60648310610c5c576064830492506002015b600a83106106ab5760010192915050565b610c756110df565b8051610c819083610d34565b5060006020820152919050565b610c9b8260038351610dab565b8151610ca79082610eca565b505050565b8151610cb99060c2610ef2565b5061016b8282604051602001610cd191815260200190565b604051602081830303815290604052610d27565b610cf0816004610f5b565b600181602001818151610d0391906115f6565b90525050565b610d14816007610f5b565b600181602001818151610d039190611560565b610c9b8260028351610dab565b604080518082019091526060815260006020820152610d54602083611698565b15610d7c57610d64602083611698565b610d6f906020611560565b610d7990836115f6565b91505b602080840183905260405180855260008152908184010181811015610da057600080fd5b604052509192915050565b6017816001600160401b031611610dd7578251610dd19060e0600585901b168317610ef2565b50505050565b60ff816001600160401b031611610e17578251610dff906018611fe0600586901b1617610ef2565b508251610dd1906001600160401b0383166001610f72565b61ffff816001600160401b031611610e58578251610e40906019611fe0600586901b1617610ef2565b508251610dd1906001600160401b0383166002610f72565b63ffffffff816001600160401b031611610e9b578251610e8390601a611fe0600586901b1617610ef2565b508251610dd1906001600160401b0383166004610f72565b8251610eb290601b611fe0600586901b1617610ef2565b508251610dd1906001600160401b0383166008610f72565b604080518082019091526060815260006020820152610eeb83838451610ff7565b9392505050565b6040805180820190915260608152600060208201528251516000610f178260016115f6565b905084602001518210610f3857610f3885610f338360026115df565b6110c8565b8451602083820101858153508051821115610f51578181525b5093949350505050565b8151610ca790601f611fe0600585901b1617610ef2565b6040805180820190915260608152600060208201528351516000610f9682856115f6565b90508560200151811115610fb357610fb386610f338360026115df565b60006001610fc38661010061179e565b610fcd9190611560565b90508651828101878319825116178152508051831115610feb578281525b50959695505050505050565b604080518082019091526060815260006020820152825182111561101a57600080fd5b835151600061102984836115f6565b905085602001518111156110465761104686610f338360026115df565b855180518382016020019160009180851115611060578482525b505050602086015b602086106110a0578051825261107f6020836115f6565b915061108c6020826115f6565b9050611099602087611560565b9550611068565b51815160001960208890036101000a0190811690199190911617905250849150509392505050565b81516110d48383610d34565b50610dd18382610eca565b6040518060400160405280611107604051806040016040528060608152602001600081525090565b8152602001600081525090565b634e487b7160e01b600052604160045260246000fd5b604051601f8201601f191681016001600160401b038111828210171561115257611152611114565b604052919050565b60006001600160401b0383111561117357611173611114565b611186601f8401601f191660200161112a565b905082815283838301111561119a57600080fd5b828260208301376000602084830101529392505050565b600082601f8301126111c257600080fd5b610eeb8383356020850161115a565b6000806000606084860312156111e657600080fd5b8335925060208401356001600160401b038082111561120457600080fd5b611210878388016111b1565b9350604086013591508082111561122657600080fd5b50611233868287016111b1565b9150509250925092565b60006020828403121561124f57600080fd5b81356001600160401b0381111561126557600080fd5b8201601f8101841361127657600080fd5b6112858482356020840161115a565b949350505050565b6000806000606084860312156112a257600080fd5b83356001600160401b03808211156112b957600080fd5b818601915086601f8301126112cd57600080fd5b81356020828211156112e1576112e1611114565b8160051b92506112f281840161112a565b828152928401810192818101908a85111561130c57600080fd5b948201945b8486101561134357853593506001600160a01b03841684146113335760008081fd5b8382529482019490820190611311565b9a918901359950506040909701359695505050505050565b60005b8381101561137657818101518382015260200161135e565b50506000910152565b6000815180845261139781602086016020860161135b565b601f01601f19169290920160200192915050565b602081526000610eeb602083018461137f565b600181811c908216806113d257607f821691505b6020821081036113f257634e487b7160e01b600052602260045260246000fd5b50919050565b601f821115610ca757600081815260208120601f850160051c8101602086101561141f5750805b601f850160051c820191505b8181101561143e5782815560010161142b565b505050505050565b81516001600160401b0381111561145f5761145f611114565b6114738161146d84546113be565b846113f8565b602080601f8311600181146114a857600084156114905750858301515b600019600386901b1c1916600185901b17855561143e565b600085815260208120601f198616915b828110156114d7578886015182559484019460019091019084016114b8565b50858210156114f55787850151600019600388901b60f8161c191681555b5050505050600190811b01905550565b634e487b7160e01b600052603260045260246000fd5b6000835161152d81846020880161135b565b83519083019061154181836020880161135b565b01949350505050565b634e487b7160e01b600052601160045260246000fd5b818103818111156106ab576106ab61154a565b6000825161158581846020870161135b565b600b60fa1b920191825250600101919050565b6000600182016115aa576115aa61154a565b5060010190565b6040815260006115c4604083018561137f565b82810360208401526115d6818561137f565b95945050505050565b80820281158282048414176106ab576106ab61154a565b808201808211156106ab576106ab61154a565b6000816116185761161861154a565b506000190190565b634e487b7160e01b600052602160045260246000fd5b6001600160401b038616815260a06020820152600061165860a083018761137f565b61ffff9590951660408301525063ffffffff92909216606083015260809091015292915050565b60006020828403121561169157600080fd5b5051919050565b6000826116b557634e487b7160e01b600052601260045260246000fd5b500690565b600181815b808511156116f55781600019048211156116db576116db61154a565b808516156116e857918102915b93841c93908002906116bf565b509250929050565b60008261170c575060016106ab565b81611719575060006106ab565b816001811461172f576002811461173957611755565b60019150506106ab565b60ff84111561174a5761174a61154a565b50506001821b6106ab565b5060208310610133831016604e8410600b8410161715611778575081810a6106ab565b61178283836116ba565b80600019048211156117965761179661154a565b029392505050565b6000610eeb83836116fd56fea26469706673582212206b444558d2f70d2021765842ff7768bf6f7a39b9279fe2bd300b2e9f5fa4296764736f6c634300081500330000000000000000000000006e2dc0f9db014ae19888f539e59285d2ea04244c0000000000000000000000000000000000000000000000000000000000000332",
        "nonce": "0x5a8"
      },
      "additionalContracts": [],
      "isFixedGasLimit": false
    },
    {
      "hash": "0xbd631d74a326d03b9168e1bee14b99cccf8d005178babb6ece92a9164708bdcf",
      "transactionType": "CREATE",
      "contractName": "FootyDAOFunctionsCCIPConector",
      "contractAddress": "0x7043dfb5DB32eF820D0bB23e6F168C94E8Be8FB2",
      "function": null,
      "arguments": [
        "0x70499c328e1E2a3c41108bd3730F6670a44595D1",
        "0x5A83f0A6C1A378e7259FE670C26C6995E0A6524C",
        "0xa0AD79D995DdeeB18a14eAef56A549A04e3Aa1Bd",
        "0x6238772544f029ecaBfDED4300f13A3c4FE84E1D",
        "0x9877ec98695c139310480b4323b9d474d48ec4595560348a2341218670f7fbc2"
      ],
      "transaction": {
        "type": "0x00",
        "from": "0xde3089d40f3491de794fbb1eca109fac36f889d0",
        "gas": "0x148f91",
        "value": "0x0",
        "data": "0x60c0604052600060075560006008556000196009553480156200002157600080fd5b50604051620010f0380380620010f083398101604081905262000044916200013b565b82856001600160a01b03811662000075576040516335fdcccd60e21b81526000600482015260240160405180910390fd5b6001600160a01b03908116608052811660a0819052604051632b77c09f60e21b81523060048201526001602482015263addf027c90604401600060405180830381600087803b158015620000c857600080fd5b505af1158015620000dd573d6000803e3d6000fd5b5050600580546001600160a01b039889166001600160a01b03199182161790915560018054969098169516949094179095555060005550620001a292505050565b80516001600160a01b03811681146200013657600080fd5b919050565b600080600080600060a086880312156200015457600080fd5b6200015f866200011e565b94506200016f602087016200011e565b93506200017f604087016200011e565b92506200018f606087016200011e565b9150608086015190509295509295909350565b60805160a051610f13620001dd600039600081816101c601528181610414015261064001526000818161025301526103b30152610f136000f3fe608060405234801561001057600080fd5b50600436106101005760003560e01c806385572ffb11610097578063b1acebd711610066578063b1acebd714610277578063bd11a4a41461028a578063bf90fb4e14610293578063fee7c607146102a657600080fd5b806385572ffb146101fb578063a0f717e31461020e578063a36ff4d81461023e578063b0f479a11461025157600080fd5b8063365b98b2116100d3578063365b98b21461019b5780634451e5d5146101ae57806371bab666146101c15780637e2e9f13146101e857600080fd5b806301ffc9a71461010557806305bf3d631461012d5780630689bafd1461015b57806329a51c5c14610186575b600080fd5b61011861011336600461089a565b6102c9565b60405190151581526020015b60405180910390f35b61014d61013b3660046108cb565b60046020526000908152604090205481565b604051908152602001610124565b60055461016e906001600160a01b031681565b6040516001600160a01b039091168152602001610124565b6101996101943660046108cb565b600755565b005b61016e6101a93660046108cb565b610300565b6101996101bc3660046108cb565b600855565b61016e7f000000000000000000000000000000000000000000000000000000000000000081565b6101996101f63660046108f9565b61032a565b610199610209366004610916565b6103a8565b61019961021c3660046108f9565b600280546001600160a01b0319166001600160a01b0392909216919091179055565b60015461016e906001600160a01b031681565b7f000000000000000000000000000000000000000000000000000000000000000061016e565b610199610285366004610951565b610409565b61014d60005481565b60025461016e906001600160a01b031681565b6101186102b43660046108cb565b60036020526000908152604090205460ff1681565b60006001600160e01b031982166385572ffb60e01b14806102fa57506001600160e01b031982166301ffc9a760e01b145b92915050565b6006818154811061031057600080fd5b6000918252602090912001546001600160a01b0316905081565b604080516001808252818301909252906020808301908036833750508151610359926006925060200190610820565b5080600660008154811061036f5761036f6109e3565b9060005260206000200160006101000a8154816001600160a01b0302191690836001600160a01b031602179055506103a56105e8565b50565b336001600160a01b037f000000000000000000000000000000000000000000000000000000000000000016146103f8576040516335fdcccd60e21b81523360048201526024015b60405180910390fd5b6103a561040482610bbf565b61072a565b336001600160a01b037f0000000000000000000000000000000000000000000000000000000000000000161461047a5760405162461bcd60e51b8152602060048201526016602482015275043616c6c6572206e6f74204169726e6f6465205252560541b60448201526064016103ef565b6000838152600360205260408120805460ff1916905561049c82840184610c6c565b905060006006805490509050600081836000815181106104be576104be6109e3565b60200260200101516104d09190610cfd565b90506000600754846001815181106104ea576104ea6109e3565b60200260200101516104fc9190610cfd565b604080516001808252818301909252919250678ac7230489e8000091600091602080830190803683370190505090506006848154811061053e5761053e6109e3565b600091825260208220015482516001600160a01b03909116918391610565576105656109e3565b6001600160a01b03928316602091820292909201015260098590556005546040516330d6ac6760e11b81529116906361ad58ce906105ab90849086908890600401610d1f565b600060405180830381600087803b1580156105c557600080fd5b505af11580156105d9573d6000803e3d6000fd5b50505050505050505050505050565b60015460008054600280546040805161317560f01b60208201526373697a6560e01b81830152606080820194909452815180820390940184526080810191829052636e6be03f60e01b90915293946001600160a01b037f0000000000000000000000000000000000000000000000000000000000000000811695636e6be03f9561068b95938316949093309390911691839163b1acebd760e01b91608401610d75565b6020604051808303816000875af11580156106aa573d6000803e3d6000fd5b505050506040513d601f19601f820116820180604052508101906106ce9190610e0e565b60008181526003602052604090819020805460ff191660011790555190915081907f1aa3fb73d89102f90268fade1ebcaff91cda0c8e0ace2cb44da3c0985f8b890d9061071f906002815260200190565b60405180910390a250565b600081606001518060200190518101906107449190610e27565b9050805167ffffffffffffffff811115610760576107606109cd565b604051908082528060200260200182016040528015610789578160200160208202803683370190505b50805161079e91600691602090910190610820565b5060005b8151811015610813578181815181106107bd576107bd6109e3565b6020026020010151600682815481106107d8576107d86109e3565b600091825260209091200180546001600160a01b0319166001600160a01b03929092169190911790558061080b81610eb6565b9150506107a2565b5061081c6105e8565b5050565b828054828255906000526020600020908101928215610875579160200282015b8281111561087557825182546001600160a01b0319166001600160a01b03909116178255602090920191600190910190610840565b50610881929150610885565b5090565b5b808211156108815760008155600101610886565b6000602082840312156108ac57600080fd5b81356001600160e01b0319811681146108c457600080fd5b9392505050565b6000602082840312156108dd57600080fd5b5035919050565b6001600160a01b03811681146103a557600080fd5b60006020828403121561090b57600080fd5b81356108c4816108e4565b60006020828403121561092857600080fd5b813567ffffffffffffffff81111561093f57600080fd5b820160a081850312156108c457600080fd5b60008060006040848603121561096657600080fd5b83359250602084013567ffffffffffffffff8082111561098557600080fd5b818601915086601f83011261099957600080fd5b8135818111156109a857600080fd5b8760208285010111156109ba57600080fd5b6020830194508093505050509250925092565b634e487b7160e01b600052604160045260246000fd5b634e487b7160e01b600052603260045260246000fd5b6040805190810167ffffffffffffffff81118282101715610a1c57610a1c6109cd565b60405290565b60405160a0810167ffffffffffffffff81118282101715610a1c57610a1c6109cd565b604051601f8201601f1916810167ffffffffffffffff81118282101715610a6e57610a6e6109cd565b604052919050565b803567ffffffffffffffff81168114610a8e57600080fd5b919050565b600082601f830112610aa457600080fd5b813567ffffffffffffffff811115610abe57610abe6109cd565b610ad1601f8201601f1916602001610a45565b818152846020838601011115610ae657600080fd5b816020850160208301376000918101602001919091529392505050565b600067ffffffffffffffff821115610b1d57610b1d6109cd565b5060051b60200190565b600082601f830112610b3857600080fd5b81356020610b4d610b4883610b03565b610a45565b82815260069290921b84018101918181019086841115610b6c57600080fd5b8286015b84811015610bb45760408189031215610b895760008081fd5b610b916109f9565b8135610b9c816108e4565b81528185013585820152835291830191604001610b70565b509695505050505050565b600060a08236031215610bd157600080fd5b610bd9610a22565b82358152610be960208401610a76565b6020820152604083013567ffffffffffffffff80821115610c0957600080fd5b610c1536838701610a93565b60408401526060850135915080821115610c2e57600080fd5b610c3a36838701610a93565b60608401526080850135915080821115610c5357600080fd5b50610c6036828601610b27565b60808301525092915050565b60006020808385031215610c7f57600080fd5b823567ffffffffffffffff811115610c9657600080fd5b8301601f81018513610ca757600080fd5b8035610cb5610b4882610b03565b81815260059190911b82018301908381019087831115610cd457600080fd5b928401925b82841015610cf257833582529284019290840190610cd9565b979650505050505050565b600082610d1a57634e487b7160e01b600052601260045260246000fd5b500690565b606080825284519082018190526000906020906080840190828801845b82811015610d615781516001600160a01b031684529284019290840190600101610d3c565b505050908301949094525060400152919050565b6001600160a01b03888116825260208083018990528782166040840152868216606084015290851660808301526001600160e01b0319841660a083015260e060c083018190528351908301819052600091825b82811015610de55785810182015185820161010001528101610dc8565b5050610100600081838601015280601f19601f8401168501019250505098975050505050505050565b600060208284031215610e2057600080fd5b5051919050565b60006020808385031215610e3a57600080fd5b825167ffffffffffffffff811115610e5157600080fd5b8301601f81018513610e6257600080fd5b8051610e70610b4882610b03565b81815260059190911b82018301908381019087831115610e8f57600080fd5b928401925b82841015610cf2578351610ea7816108e4565b82529284019290840190610e94565b600060018201610ed657634e487b7160e01b600052601160045260246000fd5b506001019056fea2646970667358221220912f075d558f0fba6db54295bc8d116af750324681bc1362c886c3a0b01ab84a64736f6c6343000815003300000000000000000000000070499c328e1e2a3c41108bd3730f6670a44595d10000000000000000000000005a83f0a6c1a378e7259fe670c26c6995e0a6524c000000000000000000000000a0ad79d995ddeeb18a14eaef56a549a04e3aa1bd0000000000000000000000006238772544f029ecabfded4300f13a3c4fe84e1d9877ec98695c139310480b4323b9d474d48ec4595560348a2341218670f7fbc2",
        "nonce": "0x5a9"
      },
      "additionalContracts": [],
      "isFixedGasLimit": false
    },
    {
      "hash": "0x4ca2160010e029b1abc5260ffcea161559b588b7387ac038b5eb06ce522b8e99",
      "transactionType": "CALL",
      "contractName": "FootyDAOFunctionsCCIPConector",
      "contractAddress": "0x7043dfb5DB32eF820D0bB23e6F168C94E8Be8FB2",
      "function": "setAvailableFanTokenCount(uint256)",
      "arguments": [
        "1"
      ],
      "transaction": {
        "type": "0x00",
        "from": "0xde3089d40f3491de794fbb1eca109fac36f889d0",
        "to": "0x7043dfb5db32ef820d0bb23e6f168c94e8be8fb2",
        "gas": "0xeb46",
        "value": "0x0",
        "data": "0x29a51c5c0000000000000000000000000000000000000000000000000000000000000001",
        "nonce": "0x5aa"
      },
      "additionalContracts": [],
      "isFixedGasLimit": false
    },
    {
      "hash": "0x4247f1675412c0c40663333d8b591df0db7dd616a2402ddf2c51260c3e1c76f0",
      "transactionType": "CALL",
      "contractName": "FootyDAOFunctionsCCIPConector",
      "contractAddress": "0x7043dfb5DB32eF820D0bB23e6F168C94E8Be8FB2",
      "function": "setAvailableMaxAmountToDistribute(uint256)",
      "arguments": [
        "1000000"
      ],
      "transaction": {
        "type": "0x00",
        "from": "0xde3089d40f3491de794fbb1eca109fac36f889d0",
        "to": "0x7043dfb5db32ef820d0bb23e6f168c94e8be8fb2",
        "gas": "0xf8fe",
        "value": "0x0",
        "data": "0x4451e5d500000000000000000000000000000000000000000000000000000000000f4240",
        "nonce": "0x5ab"
      },
      "additionalContracts": [],
      "isFixedGasLimit": false
    },
    {
      "hash": "0x5b89ac772d6f1e8efedd4b2d6e0a98149af1550a4de7f6e83a6f297af2dcc31a",
      "transactionType": "CALL",
      "contractName": "FunctionsRouter",
      "contractAddress": "0x6E2dc0F9DB014aE19888F539E59285D2Ea04244C",
      "function": "addConsumer(uint64,address)",
      "arguments": [
        "818",
        "0x5A83f0A6C1A378e7259FE670C26C6995E0A6524C"
      ],
      "transaction": {
        "type": "0x00",
        "from": "0xde3089d40f3491de794fbb1eca109fac36f889d0",
        "to": "0x6e2dc0f9db014ae19888f539e59285d2ea04244c",
        "gas": "0x210be",
        "value": "0x0",
        "data": "0x7341c10c00000000000000000000000000000000000000000000000000000000000003320000000000000000000000005a83f0a6c1a378e7259fe670c26c6995e0a6524c",
        "nonce": "0x5ac"
      },
      "additionalContracts": [],
      "isFixedGasLimit": false
    },
    {
      "hash": "0x49255c82e26843dde04f9db5a62ac213a81d2ae23609b21cc0f92c4ef6050b15",
      "transactionType": "CALL",
      "contractName": "FootyDAOFunctionsConsumer",
      "contractAddress": "0x5A83f0A6C1A378e7259FE670C26C6995E0A6524C",
      "function": "setPostRequestSrc(string)",
      "arguments": [
        "\"// This example shows how to calculate a continuously compounding interested rate.\\n// This calculation would require significant on-chain gas, but is easy for a decentralized oracle network.\\n\\n// Arguments can be provided when a request is initated on-chain and used in the request source code as shown below\\nconst addressesToDistribute = args[0];\\nconst rewardsAmount = args[1];\\nconst FanTokenIndex = args[2];\\nconst DistributionCount = args[3];\\n\\nconst request = Functions.makeHttpRequest({\\n  url: `https://api.istanbul.footydao.xyz/api/web3/distribute-rewards/${addressesToDistribute}/${rewardsAmount}/${FanTokenIndex}/${DistributionCount}`,\\n  method: \\\"POST\\\",\\n});\\n\\n// Continuously-compounding interest formula: A = Pe^(rt)\\nconst [response] = await Promise.all([request]);\\n\\n// The source code MUST return a Buffer or the request will return an error message\\n// Use one of the following functions to convert to a Buffer representing the response bytes that are returned to the client smart contract:\\n// - Functions.encodeUint256\\n// - Functions.encodeInt256\\n// - Functions.encodeString\\n// Or return a custom Buffer for a custom byte encoding\\nreturn Functions.encodeUint256(10000);\\n\""
      ],
      "transaction": {
        "type": "0x00",
        "from": "0xde3089d40f3491de794fbb1eca109fac36f889d0",
        "to": "0x5a83f0a6c1a378e7259fe670c26c6995e0a6524c",
        "gas": "0x12a416",
        "value": "0x0",
        "data": "0x60af0b2a000000000000000000000000000000000000000000000000000000000000002000000000000000000000000000000000000000000000000000000000000004992f2f2054686973206578616d706c652073686f777320686f7720746f2063616c63756c617465206120636f6e74696e756f75736c7920636f6d706f756e64696e6720696e746572657374656420726174652e0a2f2f20546869732063616c63756c6174696f6e20776f756c642072657175697265207369676e69666963616e74206f6e2d636861696e206761732c20627574206973206561737920666f72206120646563656e7472616c697a6564206f7261636c65206e6574776f726b2e0a0a2f2f20417267756d656e74732063616e2062652070726f7669646564207768656e2061207265717565737420697320696e697461746564206f6e2d636861696e20616e64207573656420696e20746865207265717565737420736f7572636520636f64652061732073686f776e2062656c6f770a636f6e737420616464726573736573546f44697374726962757465203d20617267735b305d3b0a636f6e73742072657761726473416d6f756e74203d20617267735b315d3b0a636f6e73742046616e546f6b656e496e646578203d20617267735b325d3b0a636f6e737420446973747269627574696f6e436f756e74203d20617267735b335d3b0a0a636f6e73742072657175657374203d2046756e6374696f6e732e6d616b654874747052657175657374287b0a202075726c3a206068747470733a2f2f6170692e697374616e62756c2e666f6f747964616f2e78797a2f6170692f776562332f646973747269627574652d726577617264732f247b616464726573736573546f446973747269627574657d2f247b72657761726473416d6f756e747d2f247b46616e546f6b656e496e6465787d2f247b446973747269627574696f6e436f756e747d602c0a20206d6574686f643a2022504f5354222c0a7d293b0a0a2f2f20436f6e74696e756f75736c792d636f6d706f756e64696e6720696e74657265737420666f726d756c613a2041203d2050655e287274290a636f6e7374205b726573706f6e73655d203d2061776169742050726f6d6973652e616c6c285b726571756573745d293b0a0a2f2f2054686520736f7572636520636f6465204d5553542072657475726e206120427566666572206f722074686520726571756573742077696c6c2072657475726e20616e206572726f72206d6573736167650a2f2f20557365206f6e65206f662074686520666f6c6c6f77696e672066756e6374696f6e7320746f20636f6e7665727420746f20612042756666657220726570726573656e74696e672074686520726573706f6e73652062797465732074686174206172652072657475726e656420746f2074686520636c69656e7420736d61727420636f6e74726163743a0a2f2f202d2046756e6374696f6e732e656e636f646555696e743235360a2f2f202d2046756e6374696f6e732e656e636f6465496e743235360a2f2f202d2046756e6374696f6e732e656e636f6465537472696e670a2f2f204f722072657475726e206120637573746f6d2042756666657220666f72206120637573746f6d206279746520656e636f64696e670a72657475726e2046756e6374696f6e732e656e636f646555696e74323536283130303030293b0a00000000000000",
        "nonce": "0x5ad"
      },
      "additionalContracts": [],
      "isFixedGasLimit": false
    }
  ],
  "receipts": [
    {
      "transactionHash": "0xe4f258428feae9f8a40d3dcf452b161a0f800c8df100d3b2b7d1263d02cdede1",
      "transactionIndex": "0x2",
      "blockHash": "0x57e193780d5291c4599c09a41441fb3473d34761f1c6b4986c49f61fb4617417",
      "blockNumber": "0x2897c7e",
      "from": "0xDe3089d40F3491De794fBb1ECA109fAc36F889d0",
      "to": null,
      "cumulativeGasUsed": "0x1e1e91",
      "gasUsed": "0x155f90",
      "contractAddress": "0x5A83f0A6C1A378e7259FE670C26C6995E0A6524C",
      "logs": [
        {
          "address": "0x0000000000000000000000000000000000001010",
          "topics": [
            "0x4dfe1bbbcf077ddc3e01291eea2d5c70c2b422b415d95645b9adcfd678cb1d63",
            "0x0000000000000000000000000000000000000000000000000000000000001010",
            "0x000000000000000000000000de3089d40f3491de794fbb1eca109fac36f889d0",
            "0x000000000000000000000000c275dc8be39f50d12f66b6a63629c39da5bae5bd"
          ],
          "data": "0x000000000000000000000000000000000000000000000000000eedd79e16e00000000000000000000000000000000000000000000000000029233483c538e1e1000000000000000000000000000000000000000000001376ac55cd9da156eb21000000000000000000000000000000000000000000000000291446ac272201e1000000000000000000000000000000000000000000001376ac64bb753f6dcb21",
          "blockHash": "0x57e193780d5291c4599c09a41441fb3473d34761f1c6b4986c49f61fb4617417",
          "blockNumber": "0x2897c7e",
          "transactionHash": "0xe4f258428feae9f8a40d3dcf452b161a0f800c8df100d3b2b7d1263d02cdede1",
          "transactionIndex": "0x2",
          "logIndex": "0x4",
          "removed": false
        }
      ],
      "status": "0x1",
      "logsBloom": "0x00000000000000000000000000000000000000000000000000000000000000000000000000000000000000000000000000008000102000000000000000000040000000000000000000000000000000800000000000000000040100000000000000000000000000000000000000000000000000000000000080000000000000000000000000000000000000000000000000000000001000000000000000000000200000000000000000000000000000000000000000000000000040000000004000000000000000000001000000000000000000000000000000100000000000000000000000000000000000000000000000000000000000000000000000100000",
      "type": "0x0",
      "effectiveGasPrice": "0xb2d05e0f"
    },
    {
      "transactionHash": "0xbd631d74a326d03b9168e1bee14b99cccf8d005178babb6ece92a9164708bdcf",
      "transactionIndex": "0x3",
      "blockHash": "0x57e193780d5291c4599c09a41441fb3473d34761f1c6b4986c49f61fb4617417",
      "blockNumber": "0x2897c7e",
      "from": "0xDe3089d40F3491De794fBb1ECA109fAc36F889d0",
      "to": null,
      "cumulativeGasUsed": "0x2df091",
      "gasUsed": "0xfd200",
      "contractAddress": "0x7043dfb5DB32eF820D0bB23e6F168C94E8Be8FB2",
      "logs": [
        {
          "address": "0xa0AD79D995DdeeB18a14eAef56A549A04e3Aa1Bd",
          "topics": [
            "0xc2e532a12bbcce2bfa2ef9e4bee80180e4e1b1f78618f0d20bc49a648b577c56",
            "0x0000000000000000000000007043dfb5db32ef820d0bb23e6f168c94e8be8fb2",
            "0x0000000000000000000000007043dfb5db32ef820d0bb23e6f168c94e8be8fb2"
          ],
          "data": "0x0000000000000000000000000000000000000000000000000000000000000001",
          "blockHash": "0x57e193780d5291c4599c09a41441fb3473d34761f1c6b4986c49f61fb4617417",
          "blockNumber": "0x2897c7e",
          "transactionHash": "0xbd631d74a326d03b9168e1bee14b99cccf8d005178babb6ece92a9164708bdcf",
          "transactionIndex": "0x3",
          "logIndex": "0x5",
          "removed": false
        },
        {
          "address": "0x0000000000000000000000000000000000001010",
          "topics": [
            "0x4dfe1bbbcf077ddc3e01291eea2d5c70c2b422b415d95645b9adcfd678cb1d63",
            "0x0000000000000000000000000000000000000000000000000000000000001010",
            "0x000000000000000000000000de3089d40f3491de794fbb1eca109fac36f889d0",
            "0x000000000000000000000000c275dc8be39f50d12f66b6a63629c39da5bae5bd"
          ],
          "data": "0x000000000000000000000000000000000000000000000000000b0ce46f1c0000000000000000000000000000000000000000000000000000291446ac25e16871000000000000000000000000000000000000000000001376ac64bb753f6dcb21000000000000000000000000000000000000000000000000290939c7b6c56871000000000000000000000000000000000000000000001376ac6fc859ae89cb21",
          "blockHash": "0x57e193780d5291c4599c09a41441fb3473d34761f1c6b4986c49f61fb4617417",
          "blockNumber": "0x2897c7e",
          "transactionHash": "0xbd631d74a326d03b9168e1bee14b99cccf8d005178babb6ece92a9164708bdcf",
          "transactionIndex": "0x3",
          "logIndex": "0x6",
          "removed": false
        }
      ],
      "status": "0x1",
      "logsBloom": "0x00000000020000000000000000000000000000000000100000000000000000000000000000000000000000000000000000008000102000000000000000000040000000000000000000000000000000800000000100000000040100010000000000000000000000000000000000000000000000000000000080000000000000200000000000000000000000000000000000000000001000000000000000000000200200000000000000000000000000000000000000000000000040000000004000000000000000000001000000000000000800000000000000100000000000800000000000004000000000000000000000000000000000000000000000100000",
      "type": "0x0",
      "effectiveGasPrice": "0xb2d05e0f"
    },
    {
      "transactionHash": "0x4ca2160010e029b1abc5260ffcea161559b588b7387ac038b5eb06ce522b8e99",
      "transactionIndex": "0x5",
      "blockHash": "0xf3f50f066987de06f845907bbdc7bdf3f5d925e95e12ea64b3864f81c40f9cbf",
      "blockNumber": "0x2897c80",
      "from": "0xDe3089d40F3491De794fBb1ECA109fAc36F889d0",
      "to": "0x7043dfb5DB32eF820D0bB23e6F168C94E8Be8FB2",
      "cumulativeGasUsed": "0x73144",
      "gasUsed": "0xaa56",
      "contractAddress": null,
      "logs": [
        {
          "address": "0x0000000000000000000000000000000000001010",
          "topics": [
            "0x4dfe1bbbcf077ddc3e01291eea2d5c70c2b422b415d95645b9adcfd678cb1d63",
            "0x0000000000000000000000000000000000000000000000000000000000001010",
            "0x000000000000000000000000de3089d40f3491de794fbb1eca109fac36f889d0",
            "0x000000000000000000000000cfef2a3dc244ef7d0fb93c45e762d671445c4569"
          ],
          "data": "0x000000000000000000000000000000000000000000000000000076fa706b9400000000000000000000000000000000000000000000000000290939c7b5d81a710000000000000000000000000000000000000000000000aaac751b2b235486c70000000000000000000000000000000000000000000000002908c2cd456c86710000000000000000000000000000000000000000000000aaac75922593c01ac7",
          "blockHash": "0xf3f50f066987de06f845907bbdc7bdf3f5d925e95e12ea64b3864f81c40f9cbf",
          "blockNumber": "0x2897c80",
          "transactionHash": "0x4ca2160010e029b1abc5260ffcea161559b588b7387ac038b5eb06ce522b8e99",
          "transactionIndex": "0x5",
          "logIndex": "0x10",
          "removed": false
        }
      ],
      "status": "0x1",
      "logsBloom": "0x00000000010000000000000000000000000000000000000000000000000000000000000000000000000000000000000000008000100000000000000000000040000000000000000000000000000000800000000000000000020100000000000000000000000000000000000000000000000000000000000080000000000000000000000000000000000000000000000000000000001000000000000000000000200000000000000000000000000000000000000000000000000000000000004000000000000000000001000000000000000000000000000000100000000000000000000000000000000000000000000000000000000000000000040000100000",
      "type": "0x0",
      "effectiveGasPrice": "0xb2d05e0f"
    },
    {
      "transactionHash": "0x4247f1675412c0c40663333d8b591df0db7dd616a2402ddf2c51260c3e1c76f0",
      "transactionIndex": "0x1",
      "blockHash": "0x10be24e97121fc539ffe7a908c9234471b91821061c9c99ff9bf9ab850dcbedc",
      "blockNumber": "0x2897c82",
      "from": "0xDe3089d40F3491De794fBb1ECA109fAc36F889d0",
      "to": "0x7043dfb5DB32eF820D0bB23e6F168C94E8Be8FB2",
      "cumulativeGasUsed": "0x174a2",
      "gasUsed": "0xaa41",
      "contractAddress": null,
      "logs": [
        {
          "address": "0x0000000000000000000000000000000000001010",
          "topics": [
            "0x4dfe1bbbcf077ddc3e01291eea2d5c70c2b422b415d95645b9adcfd678cb1d63",
            "0x0000000000000000000000000000000000000000000000000000000000001010",
            "0x000000000000000000000000de3089d40f3491de794fbb1eca109fac36f889d0",
            "0x000000000000000000000000cfef2a3dc244ef7d0fb93c45e762d671445c4569"
          ],
          "data": "0x000000000000000000000000000000000000000000000000000076ebc553de000000000000000000000000000000000000000000000000002908c2cd45628b670000000000000000000000000000000000000000000000aaac8f3df13d68096d00000000000000000000000000000000000000000000000029084be1800ead670000000000000000000000000000000000000000000000aaac8fb4dd02bbe76d",
          "blockHash": "0x10be24e97121fc539ffe7a908c9234471b91821061c9c99ff9bf9ab850dcbedc",
          "blockNumber": "0x2897c82",
          "transactionHash": "0x4247f1675412c0c40663333d8b591df0db7dd616a2402ddf2c51260c3e1c76f0",
          "transactionIndex": "0x1",
          "logIndex": "0x2",
          "removed": false
        }
      ],
      "status": "0x1",
      "logsBloom": "0x00000000010000000000000000000000000000000000000000000000000000000000000000000000000000000000000000008000100000000000000000000040000000000000000000000000000000800000000000000000020100000000000000000000000000000000000000000000000000000000000080000000000000000000000000000000000000000000000000000000001000000000000000000000200000000000000000000000000000000000000000000000000000000000004000000000000000000001000000000000000000000000000000100000000000000000000000000000000000000000000000000000000000000000040000100000",
      "type": "0x0",
      "effectiveGasPrice": "0xb2d05e0f"
    },
    {
      "transactionHash": "0x5b89ac772d6f1e8efedd4b2d6e0a98149af1550a4de7f6e83a6f297af2dcc31a",
      "transactionIndex": "0x5",
      "blockHash": "0xadd7115c5b5158b2d2ae9700959514881059b2522ad69858ec7ddbc1a46cd29d",
      "blockNumber": "0x2897c84",
      "from": "0xDe3089d40F3491De794fBb1ECA109fAc36F889d0",
      "to": "0x6E2dc0F9DB014aE19888F539E59285D2Ea04244C",
      "cumulativeGasUsed": "0xc942a",
      "gasUsed": "0x16989",
      "contractAddress": null,
      "logs": [
        {
          "address": "0x6E2dc0F9DB014aE19888F539E59285D2Ea04244C",
          "topics": [
            "0x43dc749a04ac8fb825cbd514f7c0e13f13bc6f2ee66043b76629d51776cff8e0",
            "0x0000000000000000000000000000000000000000000000000000000000000332"
          ],
          "data": "0x0000000000000000000000005a83f0a6c1a378e7259fe670c26c6995e0a6524c",
          "blockHash": "0xadd7115c5b5158b2d2ae9700959514881059b2522ad69858ec7ddbc1a46cd29d",
          "blockNumber": "0x2897c84",
          "transactionHash": "0x5b89ac772d6f1e8efedd4b2d6e0a98149af1550a4de7f6e83a6f297af2dcc31a",
          "transactionIndex": "0x5",
          "logIndex": "0x10",
          "removed": false
        },
        {
          "address": "0x0000000000000000000000000000000000001010",
          "topics": [
            "0x4dfe1bbbcf077ddc3e01291eea2d5c70c2b422b415d95645b9adcfd678cb1d63",
            "0x0000000000000000000000000000000000000000000000000000000000001010",
            "0x000000000000000000000000de3089d40f3491de794fbb1eca109fac36f889d0",
            "0x000000000000000000000000cfef2a3dc244ef7d0fb93c45e762d671445c4569"
          ],
          "data": "0x0000000000000000000000000000000000000000000000000000fc8786104e0000000000000000000000000000000000000000000000000029084be18004b3980000000000000000000000000000000000000000000000aaacbb3796a95d2edf00000000000000000000000000000000000000000000000029074f59f9f465980000000000000000000000000000000000000000000000aaacbc341e2f6d7cdf",
          "blockHash": "0xadd7115c5b5158b2d2ae9700959514881059b2522ad69858ec7ddbc1a46cd29d",
          "blockNumber": "0x2897c84",
          "transactionHash": "0x5b89ac772d6f1e8efedd4b2d6e0a98149af1550a4de7f6e83a6f297af2dcc31a",
          "transactionIndex": "0x5",
          "logIndex": "0x11",
          "removed": false
        }
      ],
      "status": "0x1",
      "logsBloom": "0x00000000010000000000000000000000000000000000000000000040000000000000000000000000000000000000000000008000100000200000000000000040000000000000000000000010000000800000000000000000020100000000000000000000000080000000000000000000000000000000000080000000000000000000000000000000000080000000000000000000001000000000000000000000200000000000000000000080000000000000000000000000000000000000004000000000100000000001000000000000000000000008000000120000000000000000000000000000000000000000000000000000000000000000040000100000",
      "type": "0x0",
      "effectiveGasPrice": "0xb2d05e0f"
    },
    {
      "transactionHash": "0x49255c82e26843dde04f9db5a62ac213a81d2ae23609b21cc0f92c4ef6050b15",
      "transactionIndex": "0x6",
      "blockHash": "0xadd7115c5b5158b2d2ae9700959514881059b2522ad69858ec7ddbc1a46cd29d",
      "blockNumber": "0x2897c84",
      "from": "0xDe3089d40F3491De794fBb1ECA109fAc36F889d0",
      "to": "0x5A83f0A6C1A378e7259FE670C26C6995E0A6524C",
      "cumulativeGasUsed": "0x1a1312",
      "gasUsed": "0xd7ee8",
      "contractAddress": null,
      "logs": [
        {
          "address": "0x0000000000000000000000000000000000001010",
          "topics": [
            "0x4dfe1bbbcf077ddc3e01291eea2d5c70c2b422b415d95645b9adcfd678cb1d63",
            "0x0000000000000000000000000000000000000000000000000000000000001010",
            "0x000000000000000000000000de3089d40f3491de794fbb1eca109fac36f889d0",
            "0x000000000000000000000000cfef2a3dc244ef7d0fb93c45e762d671445c4569"
          ],
          "data": "0x00000000000000000000000000000000000000000000000000096d396119300000000000000000000000000000000000000000000000000029074f59f9df36910000000000000000000000000000000000000000000000aaacbc341e2f6d7cdf00000000000000000000000000000000000000000000000028fde22098c606910000000000000000000000000000000000000000000000aaacc5a1579086acdf",
          "blockHash": "0xadd7115c5b5158b2d2ae9700959514881059b2522ad69858ec7ddbc1a46cd29d",
          "blockNumber": "0x2897c84",
          "transactionHash": "0x49255c82e26843dde04f9db5a62ac213a81d2ae23609b21cc0f92c4ef6050b15",
          "transactionIndex": "0x6",
          "logIndex": "0x12",
          "removed": false
        }
      ],
      "status": "0x1",
      "logsBloom": "0x00000000010000000000000000000000000000000000000000000000000000000000000000000000000000000000000000008000100000000000000000000040000000000000000000000000000000800000000000000000020100000000000000000000000000000000000000000000000000000000000080000000000000000000000000000000000000000000000000000000001000000000000000000000200000000000000000000000000000000000000000000000000000000000004000000000000000000001000000000000000000000000000000100000000000000000000000000000000000000000000000000000000000000000040000100000",
      "type": "0x0",
      "effectiveGasPrice": "0xb2d05e0f"
    }
  ],
  "libraries": [],
  "pending": [],
  "returns": {},
  "timestamp": 1700344365,
  "chain": 80001,
  "multi": false,
  "commit": "6c16f78"
}