{
  "transactions": [
    {
      "hash": "0xbcdd285030299eabaf9b1ad723b0e1d952b3d72830282fef735c647ae1300564",
      "transactionType": "CREATE",
      "contractName": "FootyDAOAdapter",
      "contractAddress": "0x926A321e3773402CB49CaD061b91ad94550815aE",
      "function": null,
      "arguments": null,
      "transaction": {
        "type": "0x00",
        "from": "0xde3089d40f3491de794fbb1eca109fac36f889d0",
        "gas": "0xed53d",
        "value": "0x0",
        "data": "0x608060405234801561001057600080fd5b50610c91806100206000396000f3fe6080604052600436106100915760003560e01c8063aff3ae2911610059578063aff3ae29146101f6578063b430bb481461021d578063d6a0d8f314610232578063df43232e14610245578063e16e632c1461026557600080fd5b80630a9e6a70146100965780635d42ac40146100b85780636ef0214c146101045780637725135b14610143578063971cb8fb1461017b575b600080fd5b3480156100a257600080fd5b506100b66100b13660046108cb565b610285565b005b3480156100c457600080fd5b506100b66100d3366004610966565b600080546001600160a01b03909216600160401b0268010000000000000000600160e01b0319909216919091179055565b34801561011057600080fd5b506000546101259067ffffffffffffffff1681565b60405167ffffffffffffffff90911681526020015b60405180910390f35b34801561014f57600080fd5b50600254610163906001600160a01b031681565b6040516001600160a01b03909116815260200161013a565b34801561018757600080fd5b506100b6610196366004610988565b600080546001600160a01b03948516600160401b026001600160e01b031990911667ffffffffffffffff9096169590951794909417909355600180549183166001600160a01b031992831617905560028054939092169216919091179055565b34801561020257600080fd5b5060005461016390600160401b90046001600160a01b031681565b34801561022957600080fd5b506100b66102f2565b6100b66102403660046109eb565b6103da565b34801561025157600080fd5b506100b6610260366004610a04565b610447565b34801561027157600080fd5b50600154610163906001600160a01b031681565b604080518082019091526000908060048152602001858585336040516020016102b19493929190610a47565b60408051601f198184030181529181529152516102d19190602001610af9565b60405160208183030381529060405290506102eb816104d7565b5050505050565b6002546040516370a0823160e01b81523060048201526001600160a01b039091169063a9059cbb90339083906370a0823190602401602060405180830381865afa158015610344573d6000803e3d6000fd5b505050506040513d601f19601f820116820180604052508101906103689190610b46565b6040516001600160e01b031960e085901b1681526001600160a01b03909216600483015260248201526044016020604051808303816000875af11580156103b3573d6000803e3d6000fd5b505050506040513d601f19601f820116820180604052508101906103d79190610b5f565b50565b6040805180820182526001815281516020808201859052339382019390935234606082015260009282019060800160408051601f198184030181529181529152516104289190602001610af9565b6040516020818303038152906040529050610442816104d7565b505050565b60408051808201825260008082528251336020808301919091529381018a9052606081018990526080810188905260a0810187905260c0810186905260e0810185905290928201906101000160408051601f198184030181529181529152516104b39190602001610af9565b60405160208183030381529060405290506104cd816104d7565b5050505050505050565b6040805160a0810190915260008054600160401b90046001600160a01b031660c08301529081908060e0810160408051808303601f19018152918152908252602080830187905281516000808252918101835292909101919061055c565b60408051808201909152600080825260208201528152602001906001900390816105355790505b5081526002546001600160a01b03166020808301919091526040805180820182526207a12080825260009184019182528251602481019190915290511515604480830191909152825180830390910181526064909101825291820180516001600160e01b03166397a657c960e01b17905290910152600154600080546040516320487ded60e01b815293945090926001600160a01b03909216916320487ded916106179167ffffffffffffffff909116908690600401610b81565b602060405180830381865afa158015610634573d6000803e3d6000fd5b505050506040513d601f19601f820116820180604052508101906106589190610b46565b6002546040516370a0823160e01b81523060048201529192506001600160a01b0316906370a0823190602401602060405180830381865afa1580156106a1573d6000803e3d6000fd5b505050506040513d601f19601f820116820180604052508101906106c59190610b46565b811115610760576002546040516370a0823160e01b81523060048201526001600160a01b03909116906370a0823190602401602060405180830381865afa158015610714573d6000803e3d6000fd5b505050506040513d601f19601f820116820180604052508101906107389190610b46565b604051634787a10360e11b815260048101919091526024810182905260440160405180910390fd5b60025460015460405163095ea7b360e01b81526001600160a01b0391821660048201526024810184905291169063095ea7b3906044016020604051808303816000875af11580156107b5573d6000803e3d6000fd5b505050506040513d601f19601f820116820180604052508101906107d99190610b5f565b506001546000546040516396f4e9f960e01b81526001600160a01b03909216916396f4e9f99161081a9167ffffffffffffffff909116908690600401610b81565b6020604051808303816000875af1158015610839573d6000803e3d6000fd5b505050506040513d601f19601f8201168201806040525081019061085d9190610b46565b600054600254604080516001600160a01b03600160401b8504811682529092166020830152810184905291945067ffffffffffffffff169084907f9fb548811cfe022ba6400d8533a80d63fbc228e596f93603959dc47b1886af549060600160405180910390a35050919050565b6000806000604084860312156108e057600080fd5b83359250602084013567ffffffffffffffff808211156108ff57600080fd5b818601915086601f83011261091357600080fd5b81358181111561092257600080fd5b8760208260051b850101111561093757600080fd5b6020830194508093505050509250925092565b80356001600160a01b038116811461096157600080fd5b919050565b60006020828403121561097857600080fd5b6109818261094a565b9392505050565b6000806000806080858703121561099e57600080fd5b843567ffffffffffffffff811681146109b657600080fd5b93506109c46020860161094a565b92506109d26040860161094a565b91506109e06060860161094a565b905092959194509250565b6000602082840312156109fd57600080fd5b5035919050565b60008060008060008060c08789031215610a1d57600080fd5b505084359660208601359650604086013595606081013595506080810135945060a0013592509050565b84815260606020808301829052908201849052600090859060808401835b87811015610a91576001600160a01b03610a7e8561094a565b1682529282019290820190600101610a65565b506001600160a01b039590951660409490940193909352509195945050505050565b6000815180845260005b81811015610ad957602081850181015186830182015201610abd565b506000602082860101526020601f19601f83011685010191505092915050565b602081526000825160088110610b1f57634e487b7160e01b600052602160045260246000fd5b806020840152506020830151604080840152610b3e6060840182610ab3565b949350505050565b600060208284031215610b5857600080fd5b5051919050565b600060208284031215610b7157600080fd5b8151801515811461098157600080fd5b6000604067ffffffffffffffff8516835260208181850152845160a083860152610bae60e0860182610ab3565b905081860151603f1980878403016060880152610bcb8383610ab3565b88860151888203830160808a01528051808352908601945060009350908501905b80841015610c1e57845180516001600160a01b0316835286015186830152938501936001939093019290860190610bec565b5060608901516001600160a01b031660a08901526080890151888203830160c08a01529550610c4d8187610ab3565b9a995050505050505050505056fea2646970667358221220f3621336ac65b099105c6428aa67b95a2829fa2545309be1ba71c1c16659a27764736f6c63430008150033",
        "nonce": "0xd7"
      },
      "additionalContracts": [],
      "isFixedGasLimit": false
    },
    {
      "hash": "0x9d21f01df7562fa89b6d9517e602007c15544ec06d57b290a63eb5c7053c263b",
      "transactionType": "CALL",
      "contractName": "FootyDAOAdapter",
      "contractAddress": "0x926A321e3773402CB49CaD061b91ad94550815aE",
      "function": "initialize(uint64,address,address,address)",
      "arguments": [
        "2664363617261496610",
        "0x52E058E5CD5D9a25117bCe2c467c521667b345b1",
        "0x88E492127709447A5ABEFdaB8788a15B4567589E",
        "0xd14838A68E8AFBAdE5efb411d5871ea0011AFd28"
      ],
      "transaction": {
        "type": "0x00",
        "from": "0xde3089d40f3491de794fbb1eca109fac36f889d0",
        "to": "0x926a321e3773402cb49cad061b91ad94550815ae",
        "gas": "0x71b5",
        "value": "0x0",
        "data": "0x971cb8fb00000000000000000000000000000000000000000000000024f9b897ef58a92200000000000000000000000052e058e5cd5d9a25117bce2c467c521667b345b100000000000000000000000088e492127709447a5abefdab8788a15b4567589e000000000000000000000000d14838a68e8afbade5efb411d5871ea0011afd28",
        "nonce": "0xd8"
      },
      "additionalContracts": [],
      "isFixedGasLimit": false
    },
    {
      "hash": "0x81f6c29ca85ba4ed385f70f0f085de415c423821a058d3808dac5241c470ba78",
      "transactionType": "CALL",
      "contractName": "ClonableBeaconProxy",
      "contractAddress": "0xd14838A68E8AFBAdE5efb411d5871ea0011AFd28",
      "function": "transfer(address,uint256)",
      "arguments": [
        "0x926A321e3773402CB49CaD061b91ad94550815aE",
        "2000000000000000000"
      ],
      "transaction": {
        "type": "0x00",
        "from": "0xde3089d40f3491de794fbb1eca109fac36f889d0",
        "to": "0xd14838a68e8afbade5efb411d5871ea0011afd28",
        "gas": "0x13c31",
        "value": "0x0",
        "data": "0xa9059cbb000000000000000000000000926a321e3773402cb49cad061b91ad94550815ae0000000000000000000000000000000000000000000000001bc16d674ec80000",
        "nonce": "0xd9"
      },
      "additionalContracts": [],
      "isFixedGasLimit": false
    },
    {
      "hash": "0x6540a72b36fec4209a103d885b5b4364a1f0e454c9f6b454d789d7008787daac",
      "transactionType": "CALL",
      "contractName": "FootyDAOAdapter",
      "contractAddress": "0x926A321e3773402CB49CaD061b91ad94550815aE",
      "function": "createSportEvent(uint256,uint256,uint256,uint256,uint256,uint256)",
      "arguments": [
        "100000000000000000",
        "100000000000000100",
        "10000",
        "100000000000",
        "100000000000",
        "10"
      ],
      "transaction": {
        "type": "0x00",
        "from": "0xde3089d40f3491de794fbb1eca109fac36f889d0",
        "to": "0x926a321e3773402cb49cad061b91ad94550815ae",
        "gas": "0x7054",
        "value": "0x0",
        "data": "0xdf43232e000000000000000000000000000000000000000000000000016345785d8a0000000000000000000000000000000000000000000000000000016345785d8a00640000000000000000000000000000000000000000000000000000000000002710000000000000000000000000000000000000000000000000000000174876e800000000000000000000000000000000000000000000000000000000174876e800000000000000000000000000000000000000000000000000000000000000000a",
        "nonce": "0xda"
      },
      "additionalContracts": [],
      "isFixedGasLimit": false
    }
  ],
  "receipts": [
    {
      "transactionHash": "0xbcdd285030299eabaf9b1ad723b0e1d952b3d72830282fef735c647ae1300564",
      "transactionIndex": "0x1",
      "blockHash": "0x0e8c4db0e8c10101fe8c3a25cff803ab19699f8d31d5e20853c09bf1bd269e55",
      "blockNumber": "0x3530088",
      "from": "0xDe3089d40F3491De794fBb1ECA109fAc36F889d0",
      "to": null,
      "cumulativeGasUsed": "0xb68f4",
      "gasUsed": "0xb68f4",
      "contractAddress": "0x926A321e3773402CB49CaD061b91ad94550815aE",
      "logs": [],
      "status": "0x1",
      "logsBloom": "0x00000000000000000000000000000000000000000000000000000000000000000000000000000000000000000000000000000000000000000000000000000000000000000000000000000000000000000000000000000000000000000000000000000000000000000000000000000000000000000000000000000000000000000000000000000000000000000000000000000000000000000000000000000000000000000000000000000000000000000000000000000000000000000000000000000000000000000000000000000000000000000000000000000000000000000000000000000000000000000000000000000000000000000000000000000000",
      "type": "0x0",
      "effectiveGasPrice": "0x5f5e100"
    },
    {
      "transactionHash": "0x9d21f01df7562fa89b6d9517e602007c15544ec06d57b290a63eb5c7053c263b",
      "transactionIndex": "0x1",
      "blockHash": "0xfb132fe1685f4e6c6c22fca2e8168ae117383d3477f7b01e75ec68fb48771b74",
      "blockNumber": "0x353008b",
      "from": "0xDe3089d40F3491De794fBb1ECA109fAc36F889d0",
      "to": "0x926A321e3773402CB49CaD061b91ad94550815aE",
      "cumulativeGasUsed": "0x15db4",
      "gasUsed": "0x15db4",
      "contractAddress": null,
      "logs": [],
      "status": "0x1",
      "logsBloom": "0x00000000000000000000000000000000000000000000000000000000000000000000000000000000000000000000000000000000000000000000000000000000000000000000000000000000000000000000000000000000000000000000000000000000000000000000000000000000000000000000000000000000000000000000000000000000000000000000000000000000000000000000000000000000000000000000000000000000000000000000000000000000000000000000000000000000000000000000000000000000000000000000000000000000000000000000000000000000000000000000000000000000000000000000000000000000",
      "type": "0x0",
      "effectiveGasPrice": "0x5f5e100"
    },
    {
      "transactionHash": "0x81f6c29ca85ba4ed385f70f0f085de415c423821a058d3808dac5241c470ba78",
      "transactionIndex": "0x1",
      "blockHash": "0xcd47881e9d389070864d26458c25baccdda63e3f5369220d59d7f60db35a2bc8",
      "blockNumber": "0x353008e",
      "from": "0xDe3089d40F3491De794fBb1ECA109fAc36F889d0",
      "to": "0xd14838A68E8AFBAdE5efb411d5871ea0011AFd28",
      "cumulativeGasUsed": "0xf186",
      "gasUsed": "0xf186",
      "contractAddress": null,
      "logs": [
        {
          "address": "0xd14838A68E8AFBAdE5efb411d5871ea0011AFd28",
          "topics": [
            "0xddf252ad1be2c89b69c2b068fc378daa952ba7f163c4a11628f55a4df523b3ef",
            "0x000000000000000000000000de3089d40f3491de794fbb1eca109fac36f889d0",
            "0x000000000000000000000000926a321e3773402cb49cad061b91ad94550815ae"
          ],
          "data": "0x0000000000000000000000000000000000000000000000001bc16d674ec80000",
          "blockHash": "0xcd47881e9d389070864d26458c25baccdda63e3f5369220d59d7f60db35a2bc8",
          "blockNumber": "0x353008e",
          "transactionHash": "0x81f6c29ca85ba4ed385f70f0f085de415c423821a058d3808dac5241c470ba78",
          "transactionIndex": "0x1",
          "logIndex": "0x0",
          "removed": false
        }
      ],
      "status": "0x1",
      "logsBloom": "0x00000000000000000000000000000000000000002000000000000000000000000000000000000000000000000000000000000000100000000000100000000040000000000000000000000008000000000000000000000100000000000000000000000000000000000000000000000000000000000000000000000010000000000000000000000000000000000200000000000004001000000000000000000000000000000000000000000000400000000000000000000000000000000000000000000002000000000000000000000000000000000000000000000000000000000000000000000000000000000000000000000000000000000000000000000000",
      "type": "0x0",
      "effectiveGasPrice": "0x5f5e100"
    },
    {
      "transactionHash": "0x6540a72b36fec4209a103d885b5b4364a1f0e454c9f6b454d789d7008787daac",
      "transactionIndex": "0x1",
      "blockHash": "0x5aec840c23485322eb826a1c589fb841eb9bc096fc6ebad80938ef9e571565db",
      "blockNumber": "0x3530094",
      "from": "0xDe3089d40F3491De794fBb1ECA109fAc36F889d0",
      "to": "0x926A321e3773402CB49CaD061b91ad94550815aE",
      "cumulativeGasUsed": "0x2ba5e",
      "gasUsed": "0x2ba5e",
      "contractAddress": null,
      "logs": [
        {
          "address": "0xd14838A68E8AFBAdE5efb411d5871ea0011AFd28",
          "topics": [
            "0x8c5be1e5ebec7d5bd14f71427d1e84f3dd0314c0f7b2291e5b200ac8c7c3b925",
            "0x000000000000000000000000926a321e3773402cb49cad061b91ad94550815ae",
            "0x00000000000000000000000088e492127709447a5abefdab8788a15b4567589e"
          ],
          "data": "0x00000000000000000000000000000000000000000000000001124bcba1514cc4",
          "blockHash": "0x5aec840c23485322eb826a1c589fb841eb9bc096fc6ebad80938ef9e571565db",
          "blockNumber": "0x3530094",
          "transactionHash": "0x6540a72b36fec4209a103d885b5b4364a1f0e454c9f6b454d789d7008787daac",
          "transactionIndex": "0x1",
          "logIndex": "0x0",
          "removed": false
        },
        {
          "address": "0xd14838A68E8AFBAdE5efb411d5871ea0011AFd28",
          "topics": [
            "0xddf252ad1be2c89b69c2b068fc378daa952ba7f163c4a11628f55a4df523b3ef",
            "0x000000000000000000000000926a321e3773402cb49cad061b91ad94550815ae",
            "0x000000000000000000000000782a7ba95215f2f7c3dd4c153cbb2ae3ec2d3215"
          ],
          "data": "0x00000000000000000000000000000000000000000000000001124bcba1514cc4",
          "blockHash": "0x5aec840c23485322eb826a1c589fb841eb9bc096fc6ebad80938ef9e571565db",
          "blockNumber": "0x3530094",
          "transactionHash": "0x6540a72b36fec4209a103d885b5b4364a1f0e454c9f6b454d789d7008787daac",
          "transactionIndex": "0x1",
          "logIndex": "0x1",
          "removed": false
        },
        {
          "address": "0xd14838A68E8AFBAdE5efb411d5871ea0011AFd28",
          "topics": [
            "0x8c5be1e5ebec7d5bd14f71427d1e84f3dd0314c0f7b2291e5b200ac8c7c3b925",
            "0x000000000000000000000000926a321e3773402cb49cad061b91ad94550815ae",
            "0x00000000000000000000000088e492127709447a5abefdab8788a15b4567589e"
          ],
          "data": "0x0000000000000000000000000000000000000000000000000000000000000000",
          "blockHash": "0x5aec840c23485322eb826a1c589fb841eb9bc096fc6ebad80938ef9e571565db",
          "blockNumber": "0x3530094",
          "transactionHash": "0x6540a72b36fec4209a103d885b5b4364a1f0e454c9f6b454d789d7008787daac",
          "transactionIndex": "0x1",
          "logIndex": "0x2",
          "removed": false
        },
        {
          "address": "0x782a7Ba95215f2F7c3dD4C153cbB2Ae3Ec2d3215",
          "topics": [
            "0xaffc45517195d6499808c643bd4a7b0ffeedf95bea5852840d7bfcf63f59e821"
          ],
          "data": "0x000000000000000000000000000000000000000000000000000000000000002000000000000000000000000000000000000000000000000054abf9fb1afeaf950000000000000000000000000000000000000000000000000000000000005def00000000000000000000000000000000000000000000000001124bcba1514cc4000000000000000000000000926a321e3773402cb49cad061b91ad94550815ae0000000000000000000000000000000000000000000000000000000000000001000000000000000000000000000000000000000000000000000000000007a120000000000000000000000000000000000000000000000000000000000000000000000000000000000000000052e058e5cd5d9a25117bce2c467c521667b345b100000000000000000000000000000000000000000000000000000000000001800000000000000000000000000000000000000000000000000000000000000300000000000000000000000000d14838a68e8afbade5efb411d5871ea0011afd28d9697eb1f716cfb44621af8ec360d1625f1fa90fa47a97fd72c8b89dca62fad7000000000000000000000000000000000000000000000000000000000000016000000000000000000000000000000000000000000000000000000000000000200000000000000000000000000000000000000000000000000000000000000000000000000000000000000000000000000000000000000000000000000000004000000000000000000000000000000000000000000000000000000000000000e0000000000000000000000000de3089d40f3491de794fbb1eca109fac36f889d0000000000000000000000000000000000000000000000000016345785d8a0000000000000000000000000000000000000000000000000000016345785d8a00640000000000000000000000000000000000000000000000000000000000002710000000000000000000000000000000000000000000000000000000174876e800000000000000000000000000000000000000000000000000000000174876e800000000000000000000000000000000000000000000000000000000000000000a0000000000000000000000000000000000000000000000000000000000000000",
          "blockHash": "0x5aec840c23485322eb826a1c589fb841eb9bc096fc6ebad80938ef9e571565db",
          "blockNumber": "0x3530094",
          "transactionHash": "0x6540a72b36fec4209a103d885b5b4364a1f0e454c9f6b454d789d7008787daac",
          "transactionIndex": "0x1",
          "logIndex": "0x3",
          "removed": false
        },
        {
          "address": "0x926A321e3773402CB49CaD061b91ad94550815aE",
          "topics": [
            "0x9fb548811cfe022ba6400d8533a80d63fbc228e596f93603959dc47b1886af54",
            "0xd9697eb1f716cfb44621af8ec360d1625f1fa90fa47a97fd72c8b89dca62fad7",
            "0x00000000000000000000000000000000000000000000000024f9b897ef58a922"
          ],
          "data": "0x00000000000000000000000052e058e5cd5d9a25117bce2c467c521667b345b1000000000000000000000000d14838a68e8afbade5efb411d5871ea0011afd2800000000000000000000000000000000000000000000000001124bcba1514cc4",
          "blockHash": "0x5aec840c23485322eb826a1c589fb841eb9bc096fc6ebad80938ef9e571565db",
          "blockNumber": "0x3530094",
          "transactionHash": "0x6540a72b36fec4209a103d885b5b4364a1f0e454c9f6b454d789d7008787daac",
          "transactionIndex": "0x1",
          "logIndex": "0x4",
          "removed": false
        }
      ],
      "status": "0x1",
      "logsBloom": "0x00000100000000000000000000008000000000002000000000000000008000000000800000800000000000000000000000000040000000000000100010200000000000000000000000000808000000000000000000000100000000200001000000000000000000000000000000000040000000010400000002000010000000000000000000000080000000000200000000000004000800020000000000000000020000000000000000000000400000000000000000000000000000000000000000000002100000800000000000000000000000000000000010000001000000001010200000000000000000040000000000000000000000000000000000000000",
      "type": "0x0",
      "effectiveGasPrice": "0x5f5e100"
    }
  ],
  "libraries": [],
  "pending": [],
  "returns": {},
  "timestamp": 1700340011,
  "chain": 421613,
  "multi": false,
  "commit": "6c16f78"
}